{
  "_format": "hh-sol-artifact-1",
  "contractName": "Ido",
  "sourceName": "contracts/Ido.sol",
  "abi": [
    {
      "inputs": [
        {
          "internalType": "uint256",
          "name": "rate",
          "type": "uint256"
        },
        {
          "internalType": "address payable",
          "name": "wallet",
          "type": "address"
        },
        {
          "internalType": "contract IERC20",
          "name": "token",
          "type": "address"
        }
      ],
      "stateMutability": "nonpayable",
      "type": "constructor"
    },
    {
      "inputs": [],
      "name": "EndTime",
      "outputs": [
        {
          "internalType": "uint256",
          "name": "",
          "type": "uint256"
        }
      ],
      "stateMutability": "view",
      "type": "function"
    },
    {
      "inputs": [],
      "name": "LDN",
      "outputs": [
        {
          "internalType": "contract IERC20",
          "name": "",
          "type": "address"
        }
      ],
      "stateMutability": "view",
      "type": "function"
    },
    {
      "inputs": [],
      "name": "buyLemonTokens",
      "outputs": [],
      "stateMutability": "payable",
      "type": "function"
    },
    {
      "inputs": [],
      "name": "contributions",
      "outputs": [
        {
          "internalType": "uint256",
          "name": "weiContributions",
          "type": "uint256"
        }
      ],
      "stateMutability": "view",
      "type": "function"
    },
    {
      "inputs": [],
      "name": "endTime",
      "outputs": [
        {
          "internalType": "uint256",
          "name": "",
          "type": "uint256"
        }
      ],
      "stateMutability": "view",
      "type": "function"
    },
    {
      "inputs": [],
      "name": "hasEnded",
      "outputs": [
        {
          "internalType": "bool",
          "name": "icoEnded",
          "type": "bool"
        }
      ],
      "stateMutability": "view",
      "type": "function"
    },
    {
      "inputs": [],
      "name": "ownerBalance",
      "outputs": [
        {
          "internalType": "uint256",
          "name": "weiProfits",
          "type": "uint256"
        }
      ],
      "stateMutability": "view",
      "type": "function"
    },
    {
      "inputs": [],
      "name": "rateOfTokensToGivePerEth",
      "outputs": [
        {
          "internalType": "uint256",
          "name": "",
          "type": "uint256"
        }
      ],
      "stateMutability": "view",
      "type": "function"
    },
    {
      "inputs": [],
      "name": "setTime",
      "outputs": [
        {
          "internalType": "uint256",
          "name": "",
          "type": "uint256"
        }
      ],
      "stateMutability": "nonpayable",
      "type": "function"
    },
    {
      "inputs": [],
      "name": "startTime",
      "outputs": [
        {
          "internalType": "uint256",
          "name": "",
          "type": "uint256"
        }
      ],
      "stateMutability": "view",
      "type": "function"
    },
    {
      "inputs": [],
      "name": "walletToStoreTheEthers",
      "outputs": [
        {
          "internalType": "address payable",
          "name": "",
          "type": "address"
        }
      ],
      "stateMutability": "view",
      "type": "function"
    }
  ],
  "bytecode": "0x60806040523480156200001157600080fd5b5060405162001346380380620013468339818101604052810190620000379190620002ad565b600083116200007d576040517f08c379a0000000000000000000000000000000000000000000000000000000008152600401620000749062000459565b60405180910390fd5b600073ffffffffffffffffffffffffffffffffffffffff168273ffffffffffffffffffffffffffffffffffffffff161415620000f0576040517f08c379a0000000000000000000000000000000000000000000000000000000008152600401620000e79062000415565b60405180910390fd5b600073ffffffffffffffffffffffffffffffffffffffff168173ffffffffffffffffffffffffffffffffffffffff16141562000163576040517f08c379a00000000000000000000000000000000000000000000000000000000081526004016200015a9062000437565b60405180910390fd5b8260028190555081600360006101000a81548173ffffffffffffffffffffffffffffffffffffffff021916908373ffffffffffffffffffffffffffffffffffffffff16021790555080600460006101000a81548173ffffffffffffffffffffffffffffffffffffffff021916908373ffffffffffffffffffffffffffffffffffffffff1602179055506000600560003373ffffffffffffffffffffffffffffffffffffffff1673ffffffffffffffffffffffffffffffffffffffff168152602001908152602001600020819055506002426200024091906200048c565b600081905550621fa4006000546200025991906200048c565b600181905550505050620005cc565b60008151905062000279816200057e565b92915050565b600081519050620002908162000598565b92915050565b600081519050620002a781620005b2565b92915050565b600080600060608486031215620002c357600080fd5b6000620002d38682870162000296565b9350506020620002e68682870162000268565b9250506040620002f9868287016200027f565b9150509250925092565b6000620003126024836200047b565b91507f5072652d53616c653a2077616c6c657420697320746865207a65726f2061646460008301527f72657373000000000000000000000000000000000000000000000000000000006020830152604082019050919050565b60006200037a6023836200047b565b91507f5072652d53616c653a20746f6b656e20697320746865207a65726f206164647260008301527f65737300000000000000000000000000000000000000000000000000000000006020830152604082019050919050565b6000620003e26013836200047b565b91507f5072652d53616c653a20726174652069732030000000000000000000000000006000830152602082019050919050565b60006020820190508181036000830152620004308162000303565b9050919050565b6000602082019050818103600083015262000452816200036b565b9050919050565b600060208201905081810360008301526200047481620003d3565b9050919050565b600082825260208201905092915050565b6000620004998262000545565b9150620004a68362000545565b9250827fffffffffffffffffffffffffffffffffffffffffffffffffffffffffffffffff03821115620004de57620004dd6200054f565b5b828201905092915050565b6000620004f68262000525565b9050919050565b60006200050a8262000525565b9050919050565b60006200051e82620004e9565b9050919050565b600073ffffffffffffffffffffffffffffffffffffffff82169050919050565b6000819050919050565b7f4e487b7100000000000000000000000000000000000000000000000000000000600052601160045260246000fd5b6200058981620004fd565b81146200059557600080fd5b50565b620005a38162000511565b8114620005af57600080fd5b50565b620005bd8162000545565b8114620005c957600080fd5b50565b610d6a80620005dc6000396000f3fe60806040526004361061009c5760003560e01c806389a237711161006457806389a2377114610178578063946897cf14610182578063a8c65c1f146101ad578063bedcf003146101d8578063d9276a4914610203578063ecb70fb71461022e5761009c565b8063029eabcb146100a15780631f9cd415146100cc5780633197cbb6146100f7578063333609781461012257806378e979251461014d575b600080fd5b3480156100ad57600080fd5b506100b6610259565b6040516100c39190610b34565b60405180910390f35b3480156100d857600080fd5b506100e1610331565b6040516100ee9190610a1a565b60405180910390f35b34801561010357600080fd5b5061010c610357565b6040516101199190610b34565b60405180910390f35b34801561012e57600080fd5b5061013761035d565b6040516101449190610b34565b60405180910390f35b34801561015957600080fd5b50610162610367565b60405161016f9190610b34565b60405180910390f35b61018061036d565b005b34801561018e57600080fd5b506101976106dd565b6040516101a49190610b34565b60405180910390f35b3480156101b957600080fd5b506101c26106e3565b6040516101cf9190610a79565b60405180910390f35b3480156101e457600080fd5b506101ed610709565b6040516101fa9190610b34565b60405180910390f35b34801561020f57600080fd5b506102186107e0565b6040516102259190610b34565b60405180910390f35b34801561023a57600080fd5b506102436107f8565b6040516102509190610a5e565b60405180910390f35b60003373ffffffffffffffffffffffffffffffffffffffff16600360009054906101000a900473ffffffffffffffffffffffffffffffffffffffff1673ffffffffffffffffffffffffffffffffffffffff1614156102ec576040517f08c379a00000000000000000000000000000000000000000000000000000000081526004016102e390610ab4565b60405180910390fd5b600560003373ffffffffffffffffffffffffffffffffffffffff1673ffffffffffffffffffffffffffffffffffffffff16815260200190815260200160002054905090565b600360009054906101000a900473ffffffffffffffffffffffffffffffffffffffff1681565b60015481565b6000600154905090565b60005481565b4260005411156103b2576040517f08c379a00000000000000000000000000000000000000000000000000000000081526004016103a990610a94565b60405180910390fd5b6103ba6107f8565b156103fa576040517f08c379a00000000000000000000000000000000000000000000000000000000081526004016103f190610ad4565b60405180910390fd5b3373ffffffffffffffffffffffffffffffffffffffff16600360009054906101000a900473ffffffffffffffffffffffffffffffffffffffff1673ffffffffffffffffffffffffffffffffffffffff16141561048b576040517f08c379a000000000000000000000000000000000000000000000000000000000815260040161048290610ab4565b60405180910390fd5b6000670de0b6b3a7640000346104a19190610bb6565b6002546104ae9190610be7565b9050600034116104f3576040517f08c379a00000000000000000000000000000000000000000000000000000000081526004016104ea90610b14565b60405180910390fd5b3460056000600360009054906101000a900473ffffffffffffffffffffffffffffffffffffffff1673ffffffffffffffffffffffffffffffffffffffff1673ffffffffffffffffffffffffffffffffffffffff16815260200190815260200160002060008282546105649190610b60565b9250508190555034600560003373ffffffffffffffffffffffffffffffffffffffff1673ffffffffffffffffffffffffffffffffffffffff16815260200190815260200160002060008282546105ba9190610b60565b92505081905550600360009054906101000a900473ffffffffffffffffffffffffffffffffffffffff1673ffffffffffffffffffffffffffffffffffffffff166108fc349081150290604051600060405180830381858888f19350505050158015610629573d6000803e3d6000fd5b50600460009054906101000a900473ffffffffffffffffffffffffffffffffffffffff1673ffffffffffffffffffffffffffffffffffffffff1663a9059cbb33836040518363ffffffff1660e01b8152600401610687929190610a35565b602060405180830381600087803b1580156106a157600080fd5b505af11580156106b5573d6000803e3d6000fd5b505050506040513d601f19601f820116820180604052508101906106d9919061081a565b5050565b60025481565b600460009054906101000a900473ffffffffffffffffffffffffffffffffffffffff1681565b60003373ffffffffffffffffffffffffffffffffffffffff16600360009054906101000a900473ffffffffffffffffffffffffffffffffffffffff1673ffffffffffffffffffffffffffffffffffffffff161461079b576040517f08c379a000000000000000000000000000000000000000000000000000000000815260040161079290610af4565b60405180910390fd5b600560003373ffffffffffffffffffffffffffffffffffffffff1673ffffffffffffffffffffffffffffffffffffffff16815260200190815260200160002054905090565b60006213c6806001546107f39190610b60565b905090565b6000426001541115905090565b60008151905061081481610d1d565b92915050565b60006020828403121561082c57600080fd5b600061083a84828501610805565b91505092915050565b61084c81610c53565b82525050565b61085b81610c41565b82525050565b61086a81610c65565b82525050565b61087981610c9b565b82525050565b600061088c601883610b4f565b91507f49434f204c61756e636820686173206e6f7420626567756e00000000000000006000830152602082019050919050565b60006108cc602483610b4f565b91507f436f6e7472616374204f776e65722063616e6e6f742070617274616b6520696e60008301527f2049434f000000000000000000000000000000000000000000000000000000006020830152604082019050919050565b6000610932601483610b4f565b91507f43726f776473616c652068617320656e646564210000000000000000000000006000830152602082019050919050565b6000610972602183610b4f565b91507f4f6e6c7920436f6e7472616374204f776e657220697320617574686f72697a6560008301527f64000000000000000000000000000000000000000000000000000000000000006020830152604082019050919050565b60006109d8601683610b4f565b91507f43616e6e6f7420627579205a45524f20746f6b656e73000000000000000000006000830152602082019050919050565b610a1481610c91565b82525050565b6000602082019050610a2f6000830184610843565b92915050565b6000604082019050610a4a6000830185610852565b610a576020830184610a0b565b9392505050565b6000602082019050610a736000830184610861565b92915050565b6000602082019050610a8e6000830184610870565b92915050565b60006020820190508181036000830152610aad8161087f565b9050919050565b60006020820190508181036000830152610acd816108bf565b9050919050565b60006020820190508181036000830152610aed81610925565b9050919050565b60006020820190508181036000830152610b0d81610965565b9050919050565b60006020820190508181036000830152610b2d816109cb565b9050919050565b6000602082019050610b496000830184610a0b565b92915050565b600082825260208201905092915050565b6000610b6b82610c91565b9150610b7683610c91565b9250827fffffffffffffffffffffffffffffffffffffffffffffffffffffffffffffffff03821115610bab57610baa610cbf565b5b828201905092915050565b6000610bc182610c91565b9150610bcc83610c91565b925082610bdc57610bdb610cee565b5b828204905092915050565b6000610bf282610c91565b9150610bfd83610c91565b9250817fffffffffffffffffffffffffffffffffffffffffffffffffffffffffffffffff0483118215151615610c3657610c35610cbf565b5b828202905092915050565b6000610c4c82610c71565b9050919050565b6000610c5e82610c71565b9050919050565b60008115159050919050565b600073ffffffffffffffffffffffffffffffffffffffff82169050919050565b6000819050919050565b6000610ca682610cad565b9050919050565b6000610cb882610c71565b9050919050565b7f4e487b7100000000000000000000000000000000000000000000000000000000600052601160045260246000fd5b7f4e487b7100000000000000000000000000000000000000000000000000000000600052601260045260246000fd5b610d2681610c65565b8114610d3157600080fd5b5056fea2646970667358221220fccb4dfba4668c10a4363d5f1f9a27347f1d413beea8e7421c28cc761bb5e67c64736f6c63430008000033",
  "linkReferences": {},
  "deployedLinkReferences": {}
}