{
  "_format": "hh-sol-artifact-1",
  "contractName": "LidoPool",
  "sourceName": "contracts/LidoPool.sol",
  "abi": [
    {
      "inputs": [
        {
          "internalType": "address",
          "name": "_stablecoin",
          "type": "address"
        },
        {
          "internalType": "address",
          "name": "_kdcoin",
          "type": "address"
        },
        {
          "internalType": "string",
          "name": "name",
          "type": "string"
        },
        {
          "internalType": "string",
          "name": "symbol",
          "type": "string"
        }
      ],
      "stateMutability": "nonpayable",
      "type": "constructor"
    },
    {
      "anonymous": false,
      "inputs": [
        {
          "indexed": true,
          "internalType": "address",
          "name": "owner",
          "type": "address"
        },
        {
          "indexed": true,
          "internalType": "address",
          "name": "approved",
          "type": "address"
        },
        {
          "indexed": true,
          "internalType": "uint256",
          "name": "tokenId",
          "type": "uint256"
        }
      ],
      "name": "Approval",
      "type": "event"
    },
    {
      "anonymous": false,
      "inputs": [
        {
          "indexed": true,
          "internalType": "address",
          "name": "owner",
          "type": "address"
        },
        {
          "indexed": true,
          "internalType": "address",
          "name": "operator",
          "type": "address"
        },
        {
          "indexed": false,
          "internalType": "bool",
          "name": "approved",
          "type": "bool"
        }
      ],
      "name": "ApprovalForAll",
      "type": "event"
    },
    {
      "anonymous": false,
      "inputs": [
        {
          "indexed": true,
          "internalType": "address",
          "name": "previousOwner",
          "type": "address"
        },
        {
          "indexed": true,
          "internalType": "address",
          "name": "newOwner",
          "type": "address"
        }
      ],
      "name": "OwnershipTransferred",
      "type": "event"
    },
    {
      "anonymous": false,
      "inputs": [
        {
          "indexed": true,
          "internalType": "address",
          "name": "from",
          "type": "address"
        },
        {
          "indexed": true,
          "internalType": "address",
          "name": "to",
          "type": "address"
        },
        {
          "indexed": true,
          "internalType": "uint256",
          "name": "tokenId",
          "type": "uint256"
        }
      ],
      "name": "Transfer",
      "type": "event"
    },
    {
      "inputs": [],
      "name": "PendingReward",
      "outputs": [
        {
          "internalType": "uint256",
          "name": "",
          "type": "uint256"
        }
      ],
      "stateMutability": "view",
      "type": "function"
    },
    {
      "inputs": [],
      "name": "TotalKdCoin",
      "outputs": [
        {
          "internalType": "uint256",
          "name": "",
          "type": "uint256"
        }
      ],
      "stateMutability": "view",
      "type": "function"
    },
    {
      "inputs": [
        {
          "internalType": "uint256",
          "name": "_amount",
          "type": "uint256"
        }
      ],
      "name": "addRewards",
      "outputs": [],
      "stateMutability": "nonpayable",
      "type": "function"
    },
    {
      "inputs": [
        {
          "internalType": "address",
          "name": "to",
          "type": "address"
        },
        {
          "internalType": "uint256",
          "name": "tokenId",
          "type": "uint256"
        }
      ],
      "name": "approve",
      "outputs": [],
      "stateMutability": "nonpayable",
      "type": "function"
    },
    {
      "inputs": [
        {
          "internalType": "address",
          "name": "owner",
          "type": "address"
        }
      ],
      "name": "balanceOf",
      "outputs": [
        {
          "internalType": "uint256",
          "name": "",
          "type": "uint256"
        }
      ],
      "stateMutability": "view",
      "type": "function"
    },
    {
      "inputs": [
        {
          "internalType": "uint256",
          "name": "",
          "type": "uint256"
        },
        {
          "internalType": "uint256",
          "name": "",
          "type": "uint256"
        }
      ],
      "name": "bondInfo",
      "outputs": [
        {
          "internalType": "uint256",
          "name": "depositTimestamp",
          "type": "uint256"
        },
        {
          "internalType": "uint256",
          "name": "amount",
          "type": "uint256"
        },
        {
          "internalType": "uint256",
          "name": "pendingInterest",
          "type": "uint256"
        },
        {
          "internalType": "uint256",
          "name": "currentNonce",
          "type": "uint256"
        },
        {
          "internalType": "bool",
          "name": "withdrawn",
          "type": "bool"
        }
      ],
      "stateMutability": "view",
      "type": "function"
    },
    {
      "inputs": [
        {
          "internalType": "uint256",
          "name": "",
          "type": "uint256"
        }
      ],
      "name": "bondPool",
      "outputs": [
        {
          "internalType": "uint256",
          "name": "",
          "type": "uint256"
        }
      ],
      "stateMutability": "view",
      "type": "function"
    },
    {
      "inputs": [
        {
          "internalType": "uint256",
          "name": "_newPeriod",
          "type": "uint256"
        }
      ],
      "name": "changeNoncePeriod",
      "outputs": [],
      "stateMutability": "nonpayable",
      "type": "function"
    },
    {
      "inputs": [
        {
          "internalType": "uint256",
          "name": "_bondId",
          "type": "uint256"
        }
      ],
      "name": "claimInterest",
      "outputs": [],
      "stateMutability": "nonpayable",
      "type": "function"
    },
    {
      "inputs": [
        {
          "internalType": "uint256",
          "name": "_minDeposit",
          "type": "uint256"
        },
        {
          "internalType": "uint256",
          "name": "_periodInterestRate",
          "type": "uint256"
        },
        {
          "internalType": "uint256",
          "name": "_noncesToUnlock",
          "type": "uint256"
        },
        {
          "internalType": "bool",
          "name": "_locked",
          "type": "bool"
        }
      ],
      "name": "createPool",
      "outputs": [],
      "stateMutability": "nonpayable",
      "type": "function"
    },
    {
      "inputs": [
        {
          "internalType": "uint256",
          "name": "_amount",
          "type": "uint256"
        }
      ],
      "name": "depositAdmin",
      "outputs": [],
      "stateMutability": "nonpayable",
      "type": "function"
    },
    {
      "inputs": [
        {
          "internalType": "uint256",
          "name": "_amount",
          "type": "uint256"
        }
      ],
      "name": "depositKdToken",
      "outputs": [
        {
          "internalType": "bool",
          "name": "",
          "type": "bool"
        }
      ],
      "stateMutability": "nonpayable",
      "type": "function"
    },
    {
      "inputs": [
        {
          "internalType": "uint256",
          "name": "_amount",
          "type": "uint256"
        }
      ],
      "name": "depositStableCoin",
      "outputs": [],
      "stateMutability": "nonpayable",
      "type": "function"
    },
    {
      "inputs": [
        {
          "internalType": "uint256",
          "name": "_poolId",
          "type": "uint256"
        },
        {
          "internalType": "uint256",
          "name": "_amount",
          "type": "uint256"
        }
      ],
      "name": "depositToPool",
      "outputs": [],
      "stateMutability": "nonpayable",
      "type": "function"
    },
    {
      "inputs": [
        {
          "internalType": "uint256",
          "name": "tokenId",
          "type": "uint256"
        }
      ],
      "name": "getApproved",
      "outputs": [
        {
          "internalType": "address",
          "name": "",
          "type": "address"
        }
      ],
      "stateMutability": "view",
      "type": "function"
    },
    {
      "inputs": [],
      "name": "inTrading",
      "outputs": [
        {
          "internalType": "uint256",
          "name": "",
          "type": "uint256"
        }
      ],
      "stateMutability": "view",
      "type": "function"
    },
    {
      "inputs": [
        {
          "internalType": "address",
          "name": "owner",
          "type": "address"
        },
        {
          "internalType": "address",
          "name": "operator",
          "type": "address"
        }
      ],
      "name": "isApprovedForAll",
      "outputs": [
        {
          "internalType": "bool",
          "name": "",
          "type": "bool"
        }
      ],
      "stateMutability": "view",
      "type": "function"
    },
    {
      "inputs": [],
      "name": "kdcoin",
      "outputs": [
        {
          "internalType": "address",
          "name": "",
          "type": "address"
        }
      ],
      "stateMutability": "view",
      "type": "function"
    },
    {
      "inputs": [
        {
          "internalType": "uint256",
          "name": "_poolId",
          "type": "uint256"
        },
        {
          "internalType": "bool",
          "name": "_lock",
          "type": "bool"
        }
      ],
      "name": "lockPool",
      "outputs": [],
      "stateMutability": "nonpayable",
      "type": "function"
    },
    {
      "inputs": [],
      "name": "name",
      "outputs": [
        {
          "internalType": "string",
          "name": "",
          "type": "string"
        }
      ],
      "stateMutability": "view",
      "type": "function"
    },
    {
      "inputs": [],
      "name": "noncePeriod",
      "outputs": [
        {
          "internalType": "uint256",
          "name": "",
          "type": "uint256"
        }
      ],
      "stateMutability": "view",
      "type": "function"
    },
    {
      "inputs": [],
      "name": "owner",
      "outputs": [
        {
          "internalType": "address",
          "name": "",
          "type": "address"
        }
      ],
      "stateMutability": "view",
      "type": "function"
    },
    {
      "inputs": [
        {
          "internalType": "uint256",
          "name": "tokenId",
          "type": "uint256"
        }
      ],
      "name": "ownerOf",
      "outputs": [
        {
          "internalType": "address",
          "name": "",
          "type": "address"
        }
      ],
      "stateMutability": "view",
      "type": "function"
    },
    {
      "inputs": [
        {
          "internalType": "uint256",
          "name": "",
          "type": "uint256"
        }
      ],
      "name": "poolInfo",
      "outputs": [
        {
          "internalType": "uint256",
          "name": "minDeposit",
          "type": "uint256"
        },
        {
          "internalType": "uint256",
          "name": "periodInterestRate",
          "type": "uint256"
        },
        {
          "internalType": "uint256",
          "name": "noncesToUnlock",
          "type": "uint256"
        },
        {
          "internalType": "bool",
          "name": "locked",
          "type": "bool"
        }
      ],
      "stateMutability": "view",
      "type": "function"
    },
    {
      "inputs": [],
      "name": "poolLength",
      "outputs": [
        {
          "internalType": "uint256",
          "name": "",
          "type": "uint256"
        }
      ],
      "stateMutability": "view",
      "type": "function"
    },
    {
      "inputs": [],
      "name": "renounceOwnership",
      "outputs": [],
      "stateMutability": "nonpayable",
      "type": "function"
    },
    {
      "inputs": [],
      "name": "rewardAPY",
      "outputs": [
        {
          "internalType": "uint256",
          "name": "",
          "type": "uint256"
        }
      ],
      "stateMutability": "view",
      "type": "function"
    },
    {
      "inputs": [],
      "name": "rewardKdCoinBalance",
      "outputs": [
        {
          "internalType": "uint256",
          "name": "",
          "type": "uint256"
        }
      ],
      "stateMutability": "view",
      "type": "function"
    },
    {
      "inputs": [
        {
          "internalType": "address",
          "name": "from",
          "type": "address"
        },
        {
          "internalType": "address",
          "name": "to",
          "type": "address"
        },
        {
          "internalType": "uint256",
          "name": "tokenId",
          "type": "uint256"
        }
      ],
      "name": "safeTransferFrom",
      "outputs": [],
      "stateMutability": "nonpayable",
      "type": "function"
    },
    {
      "inputs": [
        {
          "internalType": "address",
          "name": "from",
          "type": "address"
        },
        {
          "internalType": "address",
          "name": "to",
          "type": "address"
        },
        {
          "internalType": "uint256",
          "name": "tokenId",
          "type": "uint256"
        },
        {
          "internalType": "bytes",
          "name": "_data",
          "type": "bytes"
        }
      ],
      "name": "safeTransferFrom",
      "outputs": [],
      "stateMutability": "nonpayable",
      "type": "function"
    },
    {
      "inputs": [
        {
          "internalType": "address",
          "name": "operator",
          "type": "address"
        },
        {
          "internalType": "bool",
          "name": "approved",
          "type": "bool"
        }
      ],
      "name": "setApprovalForAll",
      "outputs": [],
      "stateMutability": "nonpayable",
      "type": "function"
    },
    {
      "inputs": [],
      "name": "stablecoin",
      "outputs": [
        {
          "internalType": "address",
          "name": "",
          "type": "address"
        }
      ],
      "stateMutability": "view",
      "type": "function"
    },
    {
      "inputs": [
        {
          "internalType": "address",
          "name": "",
          "type": "address"
        }
      ],
      "name": "stakesInfo",
      "outputs": [
        {
          "internalType": "uint256",
          "name": "amount",
          "type": "uint256"
        },
        {
          "internalType": "uint256",
          "name": "stakedAt",
          "type": "uint256"
        }
      ],
      "stateMutability": "view",
      "type": "function"
    },
    {
      "inputs": [],
      "name": "stakingAmount",
      "outputs": [
        {
          "internalType": "uint256",
          "name": "",
          "type": "uint256"
        }
      ],
      "stateMutability": "view",
      "type": "function"
    },
    {
      "inputs": [
        {
          "internalType": "bytes4",
          "name": "interfaceId",
          "type": "bytes4"
        }
      ],
      "name": "supportsInterface",
      "outputs": [
        {
          "internalType": "bool",
          "name": "",
          "type": "bool"
        }
      ],
      "stateMutability": "view",
      "type": "function"
    },
    {
      "inputs": [],
      "name": "symbol",
      "outputs": [
        {
          "internalType": "string",
          "name": "",
          "type": "string"
        }
      ],
      "stateMutability": "view",
      "type": "function"
    },
    {
      "inputs": [
        {
          "internalType": "uint256",
          "name": "index",
          "type": "uint256"
        }
      ],
      "name": "tokenByIndex",
      "outputs": [
        {
          "internalType": "uint256",
          "name": "",
          "type": "uint256"
        }
      ],
      "stateMutability": "view",
      "type": "function"
    },
    {
      "inputs": [
        {
          "internalType": "address",
          "name": "owner",
          "type": "address"
        },
        {
          "internalType": "uint256",
          "name": "index",
          "type": "uint256"
        }
      ],
      "name": "tokenOfOwnerByIndex",
      "outputs": [
        {
          "internalType": "uint256",
          "name": "",
          "type": "uint256"
        }
      ],
      "stateMutability": "view",
      "type": "function"
    },
    {
      "inputs": [
        {
          "internalType": "uint256",
          "name": "tokenId",
          "type": "uint256"
        }
      ],
      "name": "tokenURI",
      "outputs": [
        {
          "internalType": "string",
          "name": "",
          "type": "string"
        }
      ],
      "stateMutability": "view",
      "type": "function"
    },
    {
      "inputs": [
        {
          "internalType": "address",
          "name": "",
          "type": "address"
        }
      ],
      "name": "totalDeposit",
      "outputs": [
        {
          "internalType": "uint256",
          "name": "",
          "type": "uint256"
        }
      ],
      "stateMutability": "view",
      "type": "function"
    },
    {
      "inputs": [],
      "name": "totalSupply",
      "outputs": [
        {
          "internalType": "uint256",
          "name": "",
          "type": "uint256"
        }
      ],
      "stateMutability": "view",
      "type": "function"
    },
    {
      "inputs": [
        {
          "internalType": "contract IERC20",
          "name": "_token",
          "type": "address"
        },
        {
          "internalType": "address",
          "name": "_sender",
          "type": "address"
        },
        {
          "internalType": "address",
          "name": "_receiver",
          "type": "address"
        }
      ],
      "name": "transferFrom",
      "outputs": [
        {
          "internalType": "bool",
          "name": "",
          "type": "bool"
        }
      ],
      "stateMutability": "nonpayable",
      "type": "function"
    },
    {
      "inputs": [
        {
          "internalType": "address",
          "name": "from",
          "type": "address"
        },
        {
          "internalType": "address",
          "name": "to",
          "type": "address"
        },
        {
          "internalType": "uint256",
          "name": "tokenId",
          "type": "uint256"
        }
      ],
      "name": "transferFrom",
      "outputs": [],
      "stateMutability": "nonpayable",
      "type": "function"
    },
    {
      "inputs": [
        {
          "internalType": "contract IERC20",
          "name": "_token",
          "type": "address"
        },
        {
          "internalType": "address",
          "name": "_sender",
          "type": "address"
        },
        {
          "internalType": "address",
          "name": "_receiver",
          "type": "address"
        },
        {
          "internalType": "uint256",
          "name": "_amount",
          "type": "uint256"
        }
      ],
      "name": "transferGas",
      "outputs": [
        {
          "internalType": "bool",
          "name": "",
          "type": "bool"
        }
      ],
      "stateMutability": "nonpayable",
      "type": "function"
    },
    {
      "inputs": [
        {
          "internalType": "address",
          "name": "newOwner",
          "type": "address"
        }
      ],
      "name": "transferOwnership",
      "outputs": [],
      "stateMutability": "nonpayable",
      "type": "function"
    },
    {
      "inputs": [],
      "name": "withdrawKdToken",
      "outputs": [
        {
          "internalType": "bool",
          "name": "",
          "type": "bool"
        }
      ],
      "stateMutability": "nonpayable",
      "type": "function"
    },
    {
      "inputs": [
        {
          "internalType": "uint256",
          "name": "_bondId",
          "type": "uint256"
        }
      ],
      "name": "withdrawPrinciple",
      "outputs": [],
      "stateMutability": "nonpayable",
      "type": "function"
    },
    {
      "inputs": [
        {
          "internalType": "uint256",
          "name": "_amount",
          "type": "uint256"
        }
      ],
      "name": "withdrawToTradingAdmin",
      "outputs": [],
      "stateMutability": "nonpayable",
      "type": "function"
    }
  ],
  "bytecode": "0x608060405262093a80601155610320601755600060185560006019553480156200002857600080fd5b506040516200643e3803806200643e83398181016040528101906200004e91906200033d565b818162000070620000646200013860201b60201c565b6200014060201b60201c565b81600190805190602001906200008892919062000204565b508060029080519060200190620000a192919062000204565b5050506001600b8190555083600d60006101000a81548173ffffffffffffffffffffffffffffffffffffffff021916908373ffffffffffffffffffffffffffffffffffffffff16021790555082600e60006101000a81548173ffffffffffffffffffffffffffffffffffffffff021916908373ffffffffffffffffffffffffffffffffffffffff160217905550505050506200055a565b600033905090565b60008060009054906101000a900473ffffffffffffffffffffffffffffffffffffffff169050816000806101000a81548173ffffffffffffffffffffffffffffffffffffffff021916908373ffffffffffffffffffffffffffffffffffffffff1602179055508173ffffffffffffffffffffffffffffffffffffffff168173ffffffffffffffffffffffffffffffffffffffff167f8be0079c531659141344cd1fd0a4f28419497f9722a3daafe3b4186f6b6457e060405160405180910390a35050565b8280546200021290620004ac565b90600052602060002090601f01602090048101928262000236576000855562000282565b82601f106200025157805160ff191683800117855562000282565b8280016001018555821562000282579182015b828111156200028157825182559160200191906001019062000264565b5b50905062000291919062000295565b5090565b5b80821115620002b057600081600090555060010162000296565b5090565b6000620002cb620002c5846200040f565b620003db565b905082815260208101848484011115620002e457600080fd5b620002f184828562000476565b509392505050565b6000815190506200030a8162000540565b92915050565b600082601f8301126200032257600080fd5b815162000334848260208601620002b4565b91505092915050565b600080600080608085870312156200035457600080fd5b60006200036487828801620002f9565b94505060206200037787828801620002f9565b935050604085015167ffffffffffffffff8111156200039557600080fd5b620003a38782880162000310565b925050606085015167ffffffffffffffff811115620003c157600080fd5b620003cf8782880162000310565b91505092959194509250565b6000604051905081810181811067ffffffffffffffff8211171562000405576200040462000511565b5b8060405250919050565b600067ffffffffffffffff8211156200042d576200042c62000511565b5b601f19601f8301169050602081019050919050565b60006200044f8262000456565b9050919050565b600073ffffffffffffffffffffffffffffffffffffffff82169050919050565b60005b838110156200049657808201518184015260208101905062000479565b83811115620004a6576000848401525b50505050565b60006002820490506001821680620004c557607f821691505b60208210811415620004dc57620004db620004e2565b5b50919050565b7f4e487b7100000000000000000000000000000000000000000000000000000000600052602260045260246000fd5b7f4e487b7100000000000000000000000000000000000000000000000000000000600052604160045260246000fd5b6200054b8162000442565b81146200055757600080fd5b50565b615ed4806200056a6000396000f3fe608060405234801561001057600080fd5b50600436106102a05760003560e01c80636352211e11610167578063b88d4fde116100ce578063e9cbd82211610087578063e9cbd82214610875578063eb82055114610893578063f2fde38b146108af578063f313e700146108cb578063f3503b2c146108ff578063f8a2974f1461091d576102a0565b8063b88d4fde146107a3578063bcb7838a146107bf578063beceed39146107db578063c87b56dd146107f7578063e5f6bc0b14610827578063e985e9c514610845576102a0565b80638da5cb5b116101205780638da5cb5b146106f35780639542a7951461071157806395d89b411461072f57806399b9bd5e1461074d578063a22cb46514610769578063b7fd178414610785576102a0565b80636352211e1461061e578063655ea88d1461064e57806370a082311461067f578063715018a6146106af57806371583d4c146106b9578063739a3e02146106d5576102a0565b806323b872dd1161020b5780633169bda0116101c45780633169bda01461053a57806342842e0e1461056a57806348bc4b7b146105865780634f6ccce7146105b657806351ee8167146105e65780635776d3ad14610602576102a0565b806323b872dd1461047857806329bd44e6146104945780632b687122146104b25780632eb375ea146104d05780632f745c59146104ec5780632f8a21bf1461051c576102a0565b8063095ea7b31161025d578063095ea7b3146103a15780631084e812146103bd5780631526fe27146103ed57806318160ddd146104205780631b43be7a1461043e5780631bd8a15a1461045c576102a0565b806301ffc9a7146102a5578063056e31c1146102d557806305e817721461030557806306fdde0314610335578063081812fc14610353578063081e3eda14610383575b600080fd5b6102bf60048036038101906102ba9190614631565b610939565b6040516102cc9190615518565b60405180910390f35b6102ef60048036038101906102ea9190614683565b6109b3565b6040516102fc9190615518565b60405180910390f35b61031f600480360381019061031a9190614735565b610b59565b60405161032c9190615955565b60405180910390f35b61033d610b71565b60405161034a9190615533565b60405180910390f35b61036d60048036038101906103689190614735565b610c03565b60405161037a9190615428565b60405180910390f35b61038b610c88565b6040516103989190615955565b60405180910390f35b6103bb60048036038101906103b691906145cc565b610c95565b005b6103d760048036038101906103d29190614461565b610dad565b6040516103e49190615955565b60405180910390f35b61040760048036038101906104029190614735565b610dc5565b6040516104179493929190615999565b60405180910390f35b610428610e12565b6040516104359190615955565b60405180910390f35b610446610e1f565b6040516104539190615518565b60405180910390f35b61047660048036038101906104719190614787565b6110f1565b005b610492600480360381019061048d91906144c6565b6111da565b005b61049c61123a565b6040516104a99190615955565b60405180910390f35b6104ba611240565b6040516104c79190615955565b60405180910390f35b6104ea60048036038101906104e59190614735565b611246565b005b610506600480360381019061050191906145cc565b6115c3565b6040516105139190615955565b60405180910390f35b610524611668565b6040516105319190615955565b60405180910390f35b610554600480360381019061054f91906146d2565b61166e565b6040516105619190615518565b60405180910390f35b610584600480360381019061057f91906144c6565b611785565b005b6105a0600480360381019061059b9190614735565b6117a5565b6040516105ad9190615518565b60405180910390f35b6105d060048036038101906105cb9190614735565b611910565b6040516105dd9190615955565b60405180910390f35b61060060048036038101906105fb91906147ff565b6119a7565b005b61061c60048036038101906106179190614735565b611ab7565b005b61063860048036038101906106339190614735565b611b3d565b6040516106459190615428565b60405180910390f35b61066860048036038101906106639190614461565b611bef565b604051610676929190615970565b60405180910390f35b61069960048036038101906106949190614461565b611c13565b6040516106a69190615955565b60405180910390f35b6106b7611ccb565b005b6106d360048036038101906106ce9190614735565b611d53565b005b6106dd611e84565b6040516106ea9190615955565b60405180910390f35b6106fb611e8a565b6040516107089190615428565b60405180910390f35b610719611eb3565b6040516107269190615428565b60405180910390f35b610737611ed9565b6040516107449190615533565b60405180910390f35b61076760048036038101906107629190614735565b611f6b565b005b610783600480360381019061077e9190614590565b6120b5565b005b61078d612236565b60405161079a9190615955565b60405180910390f35b6107bd60048036038101906107b89190614515565b61223c565b005b6107d960048036038101906107d49190614735565b61229e565b005b6107f560048036038101906107f09190614735565b61242f565b005b610811600480360381019061080c9190614735565b61257b565b60405161081e9190615533565b60405180910390f35b61082f612622565b60405161083c9190615955565b60405180910390f35b61085f600480360381019061085a919061448a565b6126e3565b60405161086c9190615518565b60405180910390f35b61087d612777565b60405161088a9190615428565b60405180910390f35b6108ad60048036038101906108a891906147c3565b61279d565b005b6108c960048036038101906108c49190614461565b612b82565b005b6108e560048036038101906108e091906147c3565b612c7a565b6040516108f69594939291906159de565b60405180910390f35b610907612cca565b6040516109149190615955565b60405180910390f35b61093760048036038101906109329190614735565b612d7c565b005b60007f780e9d63000000000000000000000000000000000000000000000000000000007bffffffffffffffffffffffffffffffffffffffffffffffffffffffff1916827bffffffffffffffffffffffffffffffffffffffffffffffffffffffff191614806109ac57506109ab826130a6565b5b9050919050565b60006109bd613188565b73ffffffffffffffffffffffffffffffffffffffff166109db611e8a565b73ffffffffffffffffffffffffffffffffffffffff1614610a31576040517f08c379a0000000000000000000000000000000000000000000000000000000008152600401610a28906157b5565b60405180910390fd5b60008473ffffffffffffffffffffffffffffffffffffffff1663dd62ed3e85306040518363ffffffff1660e01b8152600401610a6e929190615443565b60206040518083038186803b158015610a8657600080fd5b505afa158015610a9a573d6000803e3d6000fd5b505050506040513d601f19601f82011682018060405250810190610abe919061475e565b90508473ffffffffffffffffffffffffffffffffffffffff166323b872dd8585846040518463ffffffff1660e01b8152600401610afd9392919061546c565b602060405180830381600087803b158015610b1757600080fd5b505af1158015610b2b573d6000803e3d6000fd5b505050506040513d601f19601f82011682018060405250810190610b4f9190614608565b9150509392505050565b60146020528060005260406000206000915090505481565b606060018054610b8090615cb2565b80601f0160208091040260200160405190810160405280929190818152602001828054610bac90615cb2565b8015610bf95780601f10610bce57610100808354040283529160200191610bf9565b820191906000526020600020905b815481529060010190602001808311610bdc57829003601f168201915b5050505050905090565b6000610c0e82613190565b610c4d576040517f08c379a0000000000000000000000000000000000000000000000000000000008152600401610c4490615795565b60405180910390fd5b6005600083815260200190815260200160002060009054906101000a900473ffffffffffffffffffffffffffffffffffffffff169050919050565b6000600f80549050905090565b6000610ca082611b3d565b90508073ffffffffffffffffffffffffffffffffffffffff168373ffffffffffffffffffffffffffffffffffffffff161415610d11576040517f08c379a0000000000000000000000000000000000000000000000000000000008152600401610d0890615815565b60405180910390fd5b8073ffffffffffffffffffffffffffffffffffffffff16610d30613188565b73ffffffffffffffffffffffffffffffffffffffff161480610d5f5750610d5e81610d59613188565b6126e3565b5b610d9e576040517f08c379a0000000000000000000000000000000000000000000000000000000008152600401610d95906156d5565b60405180910390fd5b610da883836131fc565b505050565b60166020528060005260406000206000915090505481565b600f8181548110610dd557600080fd5b90600052602060002090600402016000915090508060000154908060010154908060020154908060030160009054906101000a900460ff16905084565b6000600980549050905090565b600080601560003373ffffffffffffffffffffffffffffffffffffffff1673ffffffffffffffffffffffffffffffffffffffff16815260200190815260200160002090506000816000015411610eaa576040517f08c379a0000000000000000000000000000000000000000000000000000000008152600401610ea1906158f5565b60405180910390fd5b6000610eb533611c13565b14610ef5576040517f08c379a0000000000000000000000000000000000000000000000000000000008152600401610eec90615915565b60405180910390fd5b6000610f0e8260010154426132b590919063ffffffff16565b90506000610f676301e13380610f5984610f4b612710610f3d6017548a600001546132cb90919063ffffffff16565b6132e190919063ffffffff16565b6132cb90919063ffffffff16565b6132e190919063ffffffff16565b9050601954811115610fae576040517f08c379a0000000000000000000000000000000000000000000000000000000008152600401610fa5906156b5565b60405180910390fd5b6000610fc78285600001546132f790919063ffffffff16565b9050601560003373ffffffffffffffffffffffffffffffffffffffff1673ffffffffffffffffffffffffffffffffffffffff16815260200190815260200160002060008082016000905560018201600090555050611030826019546132b590919063ffffffff16565b601981905550600e60009054906101000a900473ffffffffffffffffffffffffffffffffffffffff1673ffffffffffffffffffffffffffffffffffffffff1663a9059cbb33836040518363ffffffff1660e01b81526004016110939291906154ef565b602060405180830381600087803b1580156110ad57600080fd5b505af11580156110c1573d6000803e3d6000fd5b505050506040513d601f19601f820116820180604052508101906110e59190614608565b50600194505050505090565b6110f9613188565b73ffffffffffffffffffffffffffffffffffffffff16611117611e8a565b73ffffffffffffffffffffffffffffffffffffffff161461116d576040517f08c379a0000000000000000000000000000000000000000000000000000000008152600401611164906157b5565b60405180910390fd5b6000600f83815481106111a9577f4e487b7100000000000000000000000000000000000000000000000000000000600052603260045260246000fd5b90600052602060002090600402019050818160030160006101000a81548160ff021916908315150217905550505050565b6111eb6111e5613188565b8261330d565b61122a576040517f08c379a000000000000000000000000000000000000000000000000000000000815260040161122190615855565b60405180910390fd5b6112358383836133eb565b505050565b60115481565b60195481565b6002600b54141561128c576040517f08c379a0000000000000000000000000000000000000000000000000000000008152600401611283906158d5565b60405180910390fd5b6002600b819055503373ffffffffffffffffffffffffffffffffffffffff166112b482611b3d565b73ffffffffffffffffffffffffffffffffffffffff161461130a576040517f08c379a000000000000000000000000000000000000000000000000000000000815260040161130190615695565b60405180910390fd5b60006013600060146000858152602001908152602001600020548152602001908152602001600020600083815260200190815260200160002090506000600f601460008581526020019081526020016000205481548110611394577f4e487b7100000000000000000000000000000000000000000000000000000000600052603260045260246000fd5b90600052602060002090600402019050600082600301549050816002015481106113f3576040517f08c379a00000000000000000000000000000000000000000000000000000000081526004016113ea90615935565b60405180910390fd5b611435611422611411600186600301546132f790919063ffffffff16565b6011546132cb90919063ffffffff16565b84600001546132f790919063ffffffff16565b421015611477576040517f08c379a000000000000000000000000000000000000000000000000000000000815260040161146e90615715565b60405180910390fd5b60006114908460000154426132b590919063ffffffff16565b905060006114a9601154836132e190919063ffffffff16565b905083600201548111156114bf57836002015490505b808560030181905550600d60009054906101000a900473ffffffffffffffffffffffffffffffffffffffff1673ffffffffffffffffffffffffffffffffffffffff1663a9059cbb3361154386896003015461151a9190615bb6565b61153589600201548b600201546132e190919063ffffffff16565b6132cb90919063ffffffff16565b6040518363ffffffff1660e01b81526004016115609291906154ef565b602060405180830381600087803b15801561157a57600080fd5b505af115801561158e573d6000803e3d6000fd5b505050506040513d601f19601f820116820180604052508101906115b29190614608565b5050505050506001600b8190555050565b60006115ce83611c13565b821061160f576040517f08c379a000000000000000000000000000000000000000000000000000000000815260040161160690615555565b60405180910390fd5b600760008473ffffffffffffffffffffffffffffffffffffffff1673ffffffffffffffffffffffffffffffffffffffff168152602001908152602001600020600083815260200190815260200160002054905092915050565b60105481565b6000611678613188565b73ffffffffffffffffffffffffffffffffffffffff16611696611e8a565b73ffffffffffffffffffffffffffffffffffffffff16146116ec576040517f08c379a00000000000000000000000000000000000000000000000000000000081526004016116e3906157b5565b60405180910390fd5b8473ffffffffffffffffffffffffffffffffffffffff166323b872dd8585856040518463ffffffff1660e01b81526004016117299392919061546c565b602060405180830381600087803b15801561174357600080fd5b505af1158015611757573d6000803e3d6000fd5b505050506040513d601f19601f8201168201806040525081019061177b9190614608565b9050949350505050565b6117a08383836040518060200160405280600081525061223c565b505050565b60008082116117e9576040517f08c379a00000000000000000000000000000000000000000000000000000000081526004016117e0906158b5565b60405180910390fd5b600e60009054906101000a900473ffffffffffffffffffffffffffffffffffffffff1673ffffffffffffffffffffffffffffffffffffffff166323b872dd3330856040518463ffffffff1660e01b81526004016118489392919061546c565b602060405180830381600087803b15801561186257600080fd5b505af1158015611876573d6000803e3d6000fd5b505050506040513d601f19601f8201168201806040525081019061189a9190614608565b506000601560003373ffffffffffffffffffffffffffffffffffffffff1673ffffffffffffffffffffffffffffffffffffffff16815260200190815260200160002090504281600101819055506118fe8382600001546132f790919063ffffffff16565b81600001819055506001915050919050565b600061191a610e12565b821061195b576040517f08c379a000000000000000000000000000000000000000000000000000000000815260040161195290615895565b60405180910390fd5b60098281548110611995577f4e487b7100000000000000000000000000000000000000000000000000000000600052603260045260246000fd5b90600052602060002001549050919050565b6119af613188565b73ffffffffffffffffffffffffffffffffffffffff166119cd611e8a565b73ffffffffffffffffffffffffffffffffffffffff1614611a23576040517f08c379a0000000000000000000000000000000000000000000000000000000008152600401611a1a906157b5565b60405180910390fd5b600f6040518060800160405280868152602001858152602001848152602001831515815250908060018154018082558091505060019003906000526020600020906004020160009091909190915060008201518160000155602082015181600101556040820151816002015560608201518160030160006101000a81548160ff021916908315150217905550505050505050565b611abf613188565b73ffffffffffffffffffffffffffffffffffffffff16611add611e8a565b73ffffffffffffffffffffffffffffffffffffffff1614611b33576040517f08c379a0000000000000000000000000000000000000000000000000000000008152600401611b2a906157b5565b60405180910390fd5b8060118190555050565b6000806003600084815260200190815260200160002060009054906101000a900473ffffffffffffffffffffffffffffffffffffffff169050600073ffffffffffffffffffffffffffffffffffffffff168173ffffffffffffffffffffffffffffffffffffffff161415611be6576040517f08c379a0000000000000000000000000000000000000000000000000000000008152600401611bdd90615755565b60405180910390fd5b80915050919050565b60156020528060005260406000206000915090508060000154908060010154905082565b60008073ffffffffffffffffffffffffffffffffffffffff168273ffffffffffffffffffffffffffffffffffffffff161415611c84576040517f08c379a0000000000000000000000000000000000000000000000000000000008152600401611c7b90615735565b60405180910390fd5b600460008373ffffffffffffffffffffffffffffffffffffffff1673ffffffffffffffffffffffffffffffffffffffff168152602001908152602001600020549050919050565b611cd3613188565b73ffffffffffffffffffffffffffffffffffffffff16611cf1611e8a565b73ffffffffffffffffffffffffffffffffffffffff1614611d47576040517f08c379a0000000000000000000000000000000000000000000000000000000008152600401611d3e906157b5565b60405180910390fd5b611d516000613647565b565b611d5b613188565b73ffffffffffffffffffffffffffffffffffffffff16611d79611e8a565b73ffffffffffffffffffffffffffffffffffffffff1614611dcf576040517f08c379a0000000000000000000000000000000000000000000000000000000008152600401611dc6906157b5565b60405180910390fd5b600d60009054906101000a900473ffffffffffffffffffffffffffffffffffffffff1673ffffffffffffffffffffffffffffffffffffffff166323b872dd3330846040518463ffffffff1660e01b8152600401611e2e9392919061546c565b602060405180830381600087803b158015611e4857600080fd5b505af1158015611e5c573d6000803e3d6000fd5b505050506040513d601f19601f82011682018060405250810190611e809190614608565b5050565b60185481565b60008060009054906101000a900473ffffffffffffffffffffffffffffffffffffffff16905090565b600e60009054906101000a900473ffffffffffffffffffffffffffffffffffffffff1681565b606060028054611ee890615cb2565b80601f0160208091040260200160405190810160405280929190818152602001828054611f1490615cb2565b8015611f615780601f10611f3657610100808354040283529160200191611f61565b820191906000526020600020905b815481529060010190602001808311611f4457829003601f168201915b5050505050905090565b611f73613188565b73ffffffffffffffffffffffffffffffffffffffff16611f91611e8a565b73ffffffffffffffffffffffffffffffffffffffff1614611fe7576040517f08c379a0000000000000000000000000000000000000000000000000000000008152600401611fde906157b5565b60405180910390fd5b611ffc816010546132f790919063ffffffff16565b601081905550600d60009054906101000a900473ffffffffffffffffffffffffffffffffffffffff1673ffffffffffffffffffffffffffffffffffffffff1663a9059cbb33836040518363ffffffff1660e01b815260040161205f9291906154ef565b602060405180830381600087803b15801561207957600080fd5b505af115801561208d573d6000803e3d6000fd5b505050506040513d601f19601f820116820180604052508101906120b19190614608565b5050565b6120bd613188565b73ffffffffffffffffffffffffffffffffffffffff168273ffffffffffffffffffffffffffffffffffffffff16141561212b576040517f08c379a000000000000000000000000000000000000000000000000000000000815260040161212290615635565b60405180910390fd5b8060066000612138613188565b73ffffffffffffffffffffffffffffffffffffffff1673ffffffffffffffffffffffffffffffffffffffff16815260200190815260200160002060008473ffffffffffffffffffffffffffffffffffffffff1673ffffffffffffffffffffffffffffffffffffffff16815260200190815260200160002060006101000a81548160ff0219169083151502179055508173ffffffffffffffffffffffffffffffffffffffff166121e5613188565b73ffffffffffffffffffffffffffffffffffffffff167f17307eab39ab6107e8899845ad3d59bd9653f200f220920489ca2b5937696c318360405161222a9190615518565b60405180910390a35050565b60175481565b61224d612247613188565b8361330d565b61228c576040517f08c379a000000000000000000000000000000000000000000000000000000000815260040161228390615855565b60405180910390fd5b6122988484848461370b565b50505050565b6122a6613188565b73ffffffffffffffffffffffffffffffffffffffff166122c4611e8a565b73ffffffffffffffffffffffffffffffffffffffff161461231a576040517f08c379a0000000000000000000000000000000000000000000000000000000008152600401612311906157b5565b60405180910390fd5b80601054101561235f576040517f08c379a000000000000000000000000000000000000000000000000000000000815260040161235690615835565b60405180910390fd5b612374816010546132b590919063ffffffff16565b601081905550600d60009054906101000a900473ffffffffffffffffffffffffffffffffffffffff1673ffffffffffffffffffffffffffffffffffffffff166323b872dd3330846040518463ffffffff1660e01b81526004016123d99392919061546c565b602060405180830381600087803b1580156123f357600080fd5b505af1158015612407573d6000803e3d6000fd5b505050506040513d601f19601f8201168201806040525081019061242b9190614608565b5050565b612437613188565b73ffffffffffffffffffffffffffffffffffffffff16612455611e8a565b73ffffffffffffffffffffffffffffffffffffffff16146124ab576040517f08c379a00000000000000000000000000000000000000000000000000000000081526004016124a2906157b5565b60405180910390fd5b600e60009054906101000a900473ffffffffffffffffffffffffffffffffffffffff1673ffffffffffffffffffffffffffffffffffffffff166323b872dd3330846040518463ffffffff1660e01b815260040161250a9392919061546c565b602060405180830381600087803b15801561252457600080fd5b505af1158015612538573d6000803e3d6000fd5b505050506040513d601f19601f8201168201806040525081019061255c9190614608565b50612572816019546132f790919063ffffffff16565b60198190555050565b606061258682613190565b6125c5576040517f08c379a00000000000000000000000000000000000000000000000000000000081526004016125bc906157f5565b60405180910390fd5b60006125cf613767565b905060008151116125ef576040518060200160405280600081525061261a565b806125f98461377e565b60405160200161260a929190615404565b6040516020818303038152906040525b915050919050565b600080601560003373ffffffffffffffffffffffffffffffffffffffff1673ffffffffffffffffffffffffffffffffffffffff1681526020019081526020016000209050600061267f8260010154426132b590919063ffffffff16565b905060006126d86301e133806126ca846126bc6127106126ae6017548a600001546132cb90919063ffffffff16565b6132e190919063ffffffff16565b6132cb90919063ffffffff16565b6132e190919063ffffffff16565b905080935050505090565b6000600660008473ffffffffffffffffffffffffffffffffffffffff1673ffffffffffffffffffffffffffffffffffffffff16815260200190815260200160002060008373ffffffffffffffffffffffffffffffffffffffff1673ffffffffffffffffffffffffffffffffffffffff16815260200190815260200160002060009054906101000a900460ff16905092915050565b600d60009054906101000a900473ffffffffffffffffffffffffffffffffffffffff1681565b6000601560003373ffffffffffffffffffffffffffffffffffffffff1673ffffffffffffffffffffffffffffffffffffffff168152602001908152602001600020905061283282601660003373ffffffffffffffffffffffffffffffffffffffff1673ffffffffffffffffffffffffffffffffffffffff168152602001908152602001600020546132f790919063ffffffff16565b61284a600a83600001546132cb90919063ffffffff16565b101561288b576040517f08c379a0000000000000000000000000000000000000000000000000000000008152600401612882906155f5565b60405180910390fd5b6000600f84815481106128c7577f4e487b7100000000000000000000000000000000000000000000000000000000600052603260045260246000fd5b90600052602060002090600402019050600015158160030160009054906101000a900460ff1615151461292f576040517f08c379a000000000000000000000000000000000000000000000000000000000815260040161292690615675565b60405180910390fd5b8281600001541115612976576040517f08c379a000000000000000000000000000000000000000000000000000000000815260040161296d906156f5565b60405180910390fd5b600d60009054906101000a900473ffffffffffffffffffffffffffffffffffffffff1673ffffffffffffffffffffffffffffffffffffffff166323b872dd3330866040518463ffffffff1660e01b81526004016129d59392919061546c565b602060405180830381600087803b1580156129ef57600080fd5b505af1158015612a03573d6000803e3d6000fd5b505050506040513d601f19601f82011682018060405250810190612a279190614608565b50612a3b33612a36600c61392b565b613939565b8360146000612a4a600c61392b565b8152602001908152602001600020819055506000601360008681526020019081526020016000206000612a7d600c61392b565b81526020019081526020016000209050428160000181905550838160010181905550612aca612710612abc8460010154876132cb90919063ffffffff16565b6132e190919063ffffffff16565b816002018190555060008160030181905550612b2e84601660003373ffffffffffffffffffffffffffffffffffffffff1673ffffffffffffffffffffffffffffffffffffffff168152602001908152602001600020546132f790919063ffffffff16565b601660003373ffffffffffffffffffffffffffffffffffffffff1673ffffffffffffffffffffffffffffffffffffffff16815260200190815260200160002081905550612b7b600c613b07565b5050505050565b612b8a613188565b73ffffffffffffffffffffffffffffffffffffffff16612ba8611e8a565b73ffffffffffffffffffffffffffffffffffffffff1614612bfe576040517f08c379a0000000000000000000000000000000000000000000000000000000008152600401612bf5906157b5565b60405180910390fd5b600073ffffffffffffffffffffffffffffffffffffffff168173ffffffffffffffffffffffffffffffffffffffff161415612c6e576040517f08c379a0000000000000000000000000000000000000000000000000000000008152600401612c6590615595565b60405180910390fd5b612c7781613647565b50565b6013602052816000526040600020602052806000526040600020600091509150508060000154908060010154908060020154908060030154908060040160009054906101000a900460ff16905085565b6000600e60009054906101000a900473ffffffffffffffffffffffffffffffffffffffff1673ffffffffffffffffffffffffffffffffffffffff166370a08231306040518263ffffffff1660e01b8152600401612d279190615428565b60206040518083038186803b158015612d3f57600080fd5b505afa158015612d53573d6000803e3d6000fd5b505050506040513d601f19601f82011682018060405250810190612d77919061475e565b905090565b3373ffffffffffffffffffffffffffffffffffffffff16612d9c82611b3d565b73ffffffffffffffffffffffffffffffffffffffff1614612df2576040517f08c379a0000000000000000000000000000000000000000000000000000000008152600401612de990615695565b60405180910390fd5b60006013600060146000858152602001908152602001600020548152602001908152602001600020600083815260200190815260200160002090506000600f601460008581526020019081526020016000205481548110612e7c577f4e487b7100000000000000000000000000000000000000000000000000000000600052603260045260246000fd5b906000526020600020906004020190508060020154826003015414612ed6576040517f08c379a0000000000000000000000000000000000000000000000000000000008152600401612ecd906155b5565b60405180910390fd5b600015158260040160009054906101000a900460ff16151514612f2e576040517f08c379a0000000000000000000000000000000000000000000000000000000008152600401612f2590615875565b60405180910390fd5b60018260040160006101000a81548160ff021916908315150217905550612f5483613b1d565b612faa8260010154601660003373ffffffffffffffffffffffffffffffffffffffff1673ffffffffffffffffffffffffffffffffffffffff168152602001908152602001600020546132b590919063ffffffff16565b601660003373ffffffffffffffffffffffffffffffffffffffff1673ffffffffffffffffffffffffffffffffffffffff16815260200190815260200160002081905550600d60009054906101000a900473ffffffffffffffffffffffffffffffffffffffff1673ffffffffffffffffffffffffffffffffffffffff1663a9059cbb3384600101546040518363ffffffff1660e01b815260040161304e9291906154ef565b602060405180830381600087803b15801561306857600080fd5b505af115801561307c573d6000803e3d6000fd5b505050506040513d601f19601f820116820180604052508101906130a09190614608565b50505050565b60007f80ac58cd000000000000000000000000000000000000000000000000000000007bffffffffffffffffffffffffffffffffffffffffffffffffffffffff1916827bffffffffffffffffffffffffffffffffffffffffffffffffffffffff1916148061317157507f5b5e139f000000000000000000000000000000000000000000000000000000007bffffffffffffffffffffffffffffffffffffffffffffffffffffffff1916827bffffffffffffffffffffffffffffffffffffffffffffffffffffffff1916145b80613181575061318082613c2e565b5b9050919050565b600033905090565b60008073ffffffffffffffffffffffffffffffffffffffff166003600084815260200190815260200160002060009054906101000a900473ffffffffffffffffffffffffffffffffffffffff1673ffffffffffffffffffffffffffffffffffffffff1614159050919050565b816005600083815260200190815260200160002060006101000a81548173ffffffffffffffffffffffffffffffffffffffff021916908373ffffffffffffffffffffffffffffffffffffffff160217905550808273ffffffffffffffffffffffffffffffffffffffff1661326f83611b3d565b73ffffffffffffffffffffffffffffffffffffffff167f8c5be1e5ebec7d5bd14f71427d1e84f3dd0314c0f7b2291e5b200ac8c7c3b92560405160405180910390a45050565b600081836132c39190615bb6565b905092915050565b600081836132d99190615b5c565b905092915050565b600081836132ef9190615b2b565b905092915050565b600081836133059190615ad5565b905092915050565b600061331882613190565b613357576040517f08c379a000000000000000000000000000000000000000000000000000000000815260040161334e90615655565b60405180910390fd5b600061336283611b3d565b90508073ffffffffffffffffffffffffffffffffffffffff168473ffffffffffffffffffffffffffffffffffffffff1614806133d157508373ffffffffffffffffffffffffffffffffffffffff166133b984610c03565b73ffffffffffffffffffffffffffffffffffffffff16145b806133e257506133e181856126e3565b5b91505092915050565b8273ffffffffffffffffffffffffffffffffffffffff1661340b82611b3d565b73ffffffffffffffffffffffffffffffffffffffff1614613461576040517f08c379a0000000000000000000000000000000000000000000000000000000008152600401613458906157d5565b60405180910390fd5b600073ffffffffffffffffffffffffffffffffffffffff168273ffffffffffffffffffffffffffffffffffffffff1614156134d1576040517f08c379a00000000000000000000000000000000000000000000000000000000081526004016134c890615615565b60405180910390fd5b6134dc838383613c98565b6134e76000826131fc565b6001600460008573ffffffffffffffffffffffffffffffffffffffff1673ffffffffffffffffffffffffffffffffffffffff16815260200190815260200160002060008282546135379190615bb6565b925050819055506001600460008473ffffffffffffffffffffffffffffffffffffffff1673ffffffffffffffffffffffffffffffffffffffff168152602001908152602001600020600082825461358e9190615ad5565b92505081905550816003600083815260200190815260200160002060006101000a81548173ffffffffffffffffffffffffffffffffffffffff021916908373ffffffffffffffffffffffffffffffffffffffff160217905550808273ffffffffffffffffffffffffffffffffffffffff168473ffffffffffffffffffffffffffffffffffffffff167fddf252ad1be2c89b69c2b068fc378daa952ba7f163c4a11628f55a4df523b3ef60405160405180910390a4505050565b60008060009054906101000a900473ffffffffffffffffffffffffffffffffffffffff169050816000806101000a81548173ffffffffffffffffffffffffffffffffffffffff021916908373ffffffffffffffffffffffffffffffffffffffff1602179055508173ffffffffffffffffffffffffffffffffffffffff168173ffffffffffffffffffffffffffffffffffffffff167f8be0079c531659141344cd1fd0a4f28419497f9722a3daafe3b4186f6b6457e060405160405180910390a35050565b6137168484846133eb565b61372284848484613d16565b613761576040517f08c379a000000000000000000000000000000000000000000000000000000000815260040161375890615575565b60405180910390fd5b50505050565b606060405180602001604052806000815250905090565b606060008214156137c6576040518060400160405280600181526020017f30000000000000000000000000000000000000000000000000000000000000008152509050613926565b600082905060005b600082146137f85780806137e190615ce4565b915050600a826137f19190615b2b565b91506137ce565b60008167ffffffffffffffff81111561383a577f4e487b7100000000000000000000000000000000000000000000000000000000600052604160045260246000fd5b6040519080825280601f01601f19166020018201604052801561386c5781602001600182028036833780820191505090505b5090505b6000851461391f576001826138859190615bb6565b9150600a856138949190615d2d565b60306138a09190615ad5565b60f81b8183815181106138dc577f4e487b7100000000000000000000000000000000000000000000000000000000600052603260045260246000fd5b60200101907effffffffffffffffffffffffffffffffffffffffffffffffffffffffffffff1916908160001a905350600a856139189190615b2b565b9450613870565b8093505050505b919050565b600081600001549050919050565b600073ffffffffffffffffffffffffffffffffffffffff168273ffffffffffffffffffffffffffffffffffffffff1614156139a9576040517f08c379a00000000000000000000000000000000000000000000000000000000081526004016139a090615775565b60405180910390fd5b6139b281613190565b156139f2576040517f08c379a00000000000000000000000000000000000000000000000000000000081526004016139e9906155d5565b60405180910390fd5b6139fe60008383613c98565b6001600460008473ffffffffffffffffffffffffffffffffffffffff1673ffffffffffffffffffffffffffffffffffffffff1681526020019081526020016000206000828254613a4e9190615ad5565b92505081905550816003600083815260200190815260200160002060006101000a81548173ffffffffffffffffffffffffffffffffffffffff021916908373ffffffffffffffffffffffffffffffffffffffff160217905550808273ffffffffffffffffffffffffffffffffffffffff16600073ffffffffffffffffffffffffffffffffffffffff167fddf252ad1be2c89b69c2b068fc378daa952ba7f163c4a11628f55a4df523b3ef60405160405180910390a45050565b6001816000016000828254019250508190555050565b6000613b2882611b3d565b9050613b3681600084613c98565b613b416000836131fc565b6001600460008373ffffffffffffffffffffffffffffffffffffffff1673ffffffffffffffffffffffffffffffffffffffff1681526020019081526020016000206000828254613b919190615bb6565b925050819055506003600083815260200190815260200160002060006101000a81549073ffffffffffffffffffffffffffffffffffffffff021916905581600073ffffffffffffffffffffffffffffffffffffffff168273ffffffffffffffffffffffffffffffffffffffff167fddf252ad1be2c89b69c2b068fc378daa952ba7f163c4a11628f55a4df523b3ef60405160405180910390a45050565b60007f01ffc9a7000000000000000000000000000000000000000000000000000000007bffffffffffffffffffffffffffffffffffffffffffffffffffffffff1916827bffffffffffffffffffffffffffffffffffffffffffffffffffffffff1916149050919050565b613ca3838383613ead565b600073ffffffffffffffffffffffffffffffffffffffff168373ffffffffffffffffffffffffffffffffffffffff1614613d1157600073ffffffffffffffffffffffffffffffffffffffff168273ffffffffffffffffffffffffffffffffffffffff1614613d1057600080fd5b5b505050565b6000613d378473ffffffffffffffffffffffffffffffffffffffff16613fc1565b15613ea0578373ffffffffffffffffffffffffffffffffffffffff1663150b7a02613d60613188565b8786866040518563ffffffff1660e01b8152600401613d8294939291906154a3565b602060405180830381600087803b158015613d9c57600080fd5b505af1925050508015613dcd57506040513d601f19601f82011682018060405250810190613dca919061465a565b60015b613e50573d8060008114613dfd576040519150601f19603f3d011682016040523d82523d6000602084013e613e02565b606091505b50600081511415613e48576040517f08c379a0000000000000000000000000000000000000000000000000000000008152600401613e3f90615575565b60405180910390fd5b805181602001fd5b63150b7a0260e01b7bffffffffffffffffffffffffffffffffffffffffffffffffffffffff1916817bffffffffffffffffffffffffffffffffffffffffffffffffffffffff191614915050613ea5565b600190505b949350505050565b613eb8838383613fd4565b600073ffffffffffffffffffffffffffffffffffffffff168373ffffffffffffffffffffffffffffffffffffffff161415613efb57613ef681613fd9565b613f3a565b8173ffffffffffffffffffffffffffffffffffffffff168373ffffffffffffffffffffffffffffffffffffffff1614613f3957613f388382614022565b5b5b600073ffffffffffffffffffffffffffffffffffffffff168273ffffffffffffffffffffffffffffffffffffffff161415613f7d57613f788161418f565b613fbc565b8273ffffffffffffffffffffffffffffffffffffffff168273ffffffffffffffffffffffffffffffffffffffff1614613fbb57613fba82826142d2565b5b5b505050565b600080823b905060008111915050919050565b505050565b600980549050600a600083815260200190815260200160002081905550600981908060018154018082558091505060019003906000526020600020016000909190919091505550565b6000600161402f84611c13565b6140399190615bb6565b905060006008600084815260200190815260200160002054905081811461411e576000600760008673ffffffffffffffffffffffffffffffffffffffff1673ffffffffffffffffffffffffffffffffffffffff168152602001908152602001600020600084815260200190815260200160002054905080600760008773ffffffffffffffffffffffffffffffffffffffff1673ffffffffffffffffffffffffffffffffffffffff168152602001908152602001600020600084815260200190815260200160002081905550816008600083815260200190815260200160002081905550505b6008600084815260200190815260200160002060009055600760008573ffffffffffffffffffffffffffffffffffffffff1673ffffffffffffffffffffffffffffffffffffffff16815260200190815260200160002060008381526020019081526020016000206000905550505050565b600060016009805490506141a39190615bb6565b90506000600a60008481526020019081526020016000205490506000600983815481106141f9577f4e487b7100000000000000000000000000000000000000000000000000000000600052603260045260246000fd5b906000526020600020015490508060098381548110614241577f4e487b7100000000000000000000000000000000000000000000000000000000600052603260045260246000fd5b906000526020600020018190555081600a600083815260200190815260200160002081905550600a60008581526020019081526020016000206000905560098054806142b6577f4e487b7100000000000000000000000000000000000000000000000000000000600052603160045260246000fd5b6001900381819060005260206000200160009055905550505050565b60006142dd83611c13565b905081600760008573ffffffffffffffffffffffffffffffffffffffff1673ffffffffffffffffffffffffffffffffffffffff168152602001908152602001600020600083815260200190815260200160002081905550806008600084815260200190815260200160002081905550505050565b600061436461435f84615a62565b615a31565b90508281526020810184848401111561437c57600080fd5b614387848285615c70565b509392505050565b60008135905061439e81615e2b565b92915050565b6000813590506143b381615e42565b92915050565b6000815190506143c881615e42565b92915050565b6000813590506143dd81615e59565b92915050565b6000815190506143f281615e59565b92915050565b600082601f83011261440957600080fd5b8135614419848260208601614351565b91505092915050565b60008135905061443181615e70565b92915050565b60008135905061444681615e87565b92915050565b60008151905061445b81615e87565b92915050565b60006020828403121561447357600080fd5b60006144818482850161438f565b91505092915050565b6000806040838503121561449d57600080fd5b60006144ab8582860161438f565b92505060206144bc8582860161438f565b9150509250929050565b6000806000606084860312156144db57600080fd5b60006144e98682870161438f565b93505060206144fa8682870161438f565b925050604061450b86828701614437565b9150509250925092565b6000806000806080858703121561452b57600080fd5b60006145398782880161438f565b945050602061454a8782880161438f565b935050604061455b87828801614437565b925050606085013567ffffffffffffffff81111561457857600080fd5b614584878288016143f8565b91505092959194509250565b600080604083850312156145a357600080fd5b60006145b18582860161438f565b92505060206145c2858286016143a4565b9150509250929050565b600080604083850312156145df57600080fd5b60006145ed8582860161438f565b92505060206145fe85828601614437565b9150509250929050565b60006020828403121561461a57600080fd5b6000614628848285016143b9565b91505092915050565b60006020828403121561464357600080fd5b6000614651848285016143ce565b91505092915050565b60006020828403121561466c57600080fd5b600061467a848285016143e3565b91505092915050565b60008060006060848603121561469857600080fd5b60006146a686828701614422565b93505060206146b78682870161438f565b92505060406146c88682870161438f565b9150509250925092565b600080600080608085870312156146e857600080fd5b60006146f687828801614422565b94505060206147078782880161438f565b93505060406147188782880161438f565b925050606061472987828801614437565b91505092959194509250565b60006020828403121561474757600080fd5b600061475584828501614437565b91505092915050565b60006020828403121561477057600080fd5b600061477e8482850161444c565b91505092915050565b6000806040838503121561479a57600080fd5b60006147a885828601614437565b92505060206147b9858286016143a4565b9150509250929050565b600080604083850312156147d657600080fd5b60006147e485828601614437565b92505060206147f585828601614437565b9150509250929050565b6000806000806080858703121561481557600080fd5b600061482387828801614437565b945050602061483487828801614437565b935050604061484587828801614437565b9250506060614856878288016143a4565b91505092959194509250565b61486b81615bea565b82525050565b61487a81615bfc565b82525050565b600061488b82615a92565b6148958185615aa8565b93506148a5818560208601615c7f565b6148ae81615e1a565b840191505092915050565b60006148c482615a9d565b6148ce8185615ab9565b93506148de818560208601615c7f565b6148e781615e1a565b840191505092915050565b60006148fd82615a9d565b6149078185615aca565b9350614917818560208601615c7f565b80840191505092915050565b6000614930602b83615ab9565b91507f455243373231456e756d657261626c653a206f776e657220696e646578206f7560008301527f74206f6620626f756e64730000000000000000000000000000000000000000006020830152604082019050919050565b6000614996603283615ab9565b91507f4552433732313a207472616e7366657220746f206e6f6e20455243373231526560008301527f63656976657220696d706c656d656e74657200000000000000000000000000006020830152604082019050919050565b60006149fc602683615ab9565b91507f4f776e61626c653a206e6577206f776e657220697320746865207a65726f206160008301527f64647265737300000000000000000000000000000000000000000000000000006020830152604082019050919050565b6000614a62601d83615ab9565b91507f43616e2774207769746864726177206265666f726520756e6c6f636b2e0000006000830152602082019050919050565b6000614aa2601c83615ab9565b91507f4552433732313a20746f6b656e20616c7265616479206d696e746564000000006000830152602082019050919050565b6000614ae2602083615ab9565b91507f4e6f7420656e6f756768204b44207374616b656420696e2074686520706f6f6c6000830152602082019050919050565b6000614b22602483615ab9565b91507f4552433732313a207472616e7366657220746f20746865207a65726f2061646460008301527f72657373000000000000000000000000000000000000000000000000000000006020830152604082019050919050565b6000614b88601983615ab9565b91507f4552433732313a20617070726f766520746f2063616c6c6572000000000000006000830152602082019050919050565b6000614bc8602c83615ab9565b91507f4552433732313a206f70657261746f7220717565727920666f72206e6f6e657860008301527f697374656e7420746f6b656e00000000000000000000000000000000000000006020830152604082019050919050565b6000614c2e600f83615ab9565b91507f506f6f6c206973206c6f636b65642100000000000000000000000000000000006000830152602082019050919050565b6000614c6e601183615ab9565b91507f4e6f7420796f757220636f6e74726163740000000000000000000000000000006000830152602082019050919050565b6000614cae603883615ab9565b91507f50656e64696e6720726577617264732069732067726561746572207468616e2060008301527f617661696c61626c65207265776172642062616c616e636500000000000000006020830152604082019050919050565b6000614d14603883615ab9565b91507f4552433732313a20617070726f76652063616c6c6572206973206e6f74206f7760008301527f6e6572206e6f7220617070726f76656420666f7220616c6c00000000000000006020830152604082019050919050565b6000614d7a602283615ab9565b91507f416d6f756e74206973206c657373207468616e206d696e696d756d20616d6f7560008301527f6e740000000000000000000000000000000000000000000000000000000000006020830152604082019050919050565b6000614de0601683615ab9565b91507f5761697420756e74696c206e65787420636c61696d2e000000000000000000006000830152602082019050919050565b6000614e20602a83615ab9565b91507f4552433732313a2062616c616e636520717565727920666f7220746865207a6560008301527f726f2061646472657373000000000000000000000000000000000000000000006020830152604082019050919050565b6000614e86602983615ab9565b91507f4552433732313a206f776e657220717565727920666f72206e6f6e657869737460008301527f656e7420746f6b656e00000000000000000000000000000000000000000000006020830152604082019050919050565b6000614eec602083615ab9565b91507f4552433732313a206d696e7420746f20746865207a65726f20616464726573736000830152602082019050919050565b6000614f2c602c83615ab9565b91507f4552433732313a20617070726f76656420717565727920666f72206e6f6e657860008301527f697374656e7420746f6b656e00000000000000000000000000000000000000006020830152604082019050919050565b6000614f92602083615ab9565b91507f4f776e61626c653a2063616c6c6572206973206e6f7420746865206f776e65726000830152602082019050919050565b6000614fd2602983615ab9565b91507f4552433732313a207472616e73666572206f6620746f6b656e2074686174206960008301527f73206e6f74206f776e00000000000000000000000000000000000000000000006020830152604082019050919050565b6000615038602f83615ab9565b91507f4552433732314d657461646174613a2055524920717565727920666f72206e6f60008301527f6e6578697374656e7420746f6b656e00000000000000000000000000000000006020830152604082019050919050565b600061509e602183615ab9565b91507f4552433732313a20617070726f76616c20746f2063757272656e74206f776e6560008301527f72000000000000000000000000000000000000000000000000000000000000006020830152604082019050919050565b6000615104602583615ab9565b91507f576974686472617720616d6f756e7420736d616c6c6572207468616e2064657060008301527f6f7369742e0000000000000000000000000000000000000000000000000000006020830152604082019050919050565b600061516a603183615ab9565b91507f4552433732313a207472616e736665722063616c6c6572206973206e6f74206f60008301527f776e6572206e6f7220617070726f7665640000000000000000000000000000006020830152604082019050919050565b60006151d0600f83615ab9565b91507f416c726561647920436c61696d656400000000000000000000000000000000006000830152602082019050919050565b6000615210602c83615ab9565b91507f455243373231456e756d657261626c653a20676c6f62616c20696e646578206f60008301527f7574206f6620626f756e647300000000000000000000000000000000000000006020830152604082019050919050565b6000615276601683615ab9565b91507f416d6f756e74206d7573742062652067726561746572000000000000000000006000830152602082019050919050565b60006152b6601f83615ab9565b91507f5265656e7472616e637947756172643a207265656e7472616e742063616c6c006000830152602082019050919050565b60006152f6602683615ab9565b91507f596f752068617665206e6f7468696e67206465706f736974656420746f20776960008301527f74686472617700000000000000000000000000000000000000000000000000006020830152604082019050919050565b600061535c602583615ab9565b91507f43616e7420776974686472617720796f75206861766520616e2061637469766560008301527f20626f6e640000000000000000000000000000000000000000000000000000006020830152604082019050919050565b60006153c2601283615ab9565b91507f45766572797468696e6720436c61696d656400000000000000000000000000006000830152602082019050919050565b6153fe81615c66565b82525050565b600061541082856148f2565b915061541c82846148f2565b91508190509392505050565b600060208201905061543d6000830184614862565b92915050565b60006040820190506154586000830185614862565b6154656020830184614862565b9392505050565b60006060820190506154816000830186614862565b61548e6020830185614862565b61549b60408301846153f5565b949350505050565b60006080820190506154b86000830187614862565b6154c56020830186614862565b6154d260408301856153f5565b81810360608301526154e48184614880565b905095945050505050565b60006040820190506155046000830185614862565b61551160208301846153f5565b9392505050565b600060208201905061552d6000830184614871565b92915050565b6000602082019050818103600083015261554d81846148b9565b905092915050565b6000602082019050818103600083015261556e81614923565b9050919050565b6000602082019050818103600083015261558e81614989565b9050919050565b600060208201905081810360008301526155ae816149ef565b9050919050565b600060208201905081810360008301526155ce81614a55565b9050919050565b600060208201905081810360008301526155ee81614a95565b9050919050565b6000602082019050818103600083015261560e81614ad5565b9050919050565b6000602082019050818103600083015261562e81614b15565b9050919050565b6000602082019050818103600083015261564e81614b7b565b9050919050565b6000602082019050818103600083015261566e81614bbb565b9050919050565b6000602082019050818103600083015261568e81614c21565b9050919050565b600060208201905081810360008301526156ae81614c61565b9050919050565b600060208201905081810360008301526156ce81614ca1565b9050919050565b600060208201905081810360008301526156ee81614d07565b9050919050565b6000602082019050818103600083015261570e81614d6d565b9050919050565b6000602082019050818103600083015261572e81614dd3565b9050919050565b6000602082019050818103600083015261574e81614e13565b9050919050565b6000602082019050818103600083015261576e81614e79565b9050919050565b6000602082019050818103600083015261578e81614edf565b9050919050565b600060208201905081810360008301526157ae81614f1f565b9050919050565b600060208201905081810360008301526157ce81614f85565b9050919050565b600060208201905081810360008301526157ee81614fc5565b9050919050565b6000602082019050818103600083015261580e8161502b565b9050919050565b6000602082019050818103600083015261582e81615091565b9050919050565b6000602082019050818103600083015261584e816150f7565b9050919050565b6000602082019050818103600083015261586e8161515d565b9050919050565b6000602082019050818103600083015261588e816151c3565b9050919050565b600060208201905081810360008301526158ae81615203565b9050919050565b600060208201905081810360008301526158ce81615269565b9050919050565b600060208201905081810360008301526158ee816152a9565b9050919050565b6000602082019050818103600083015261590e816152e9565b9050919050565b6000602082019050818103600083015261592e8161534f565b9050919050565b6000602082019050818103600083015261594e816153b5565b9050919050565b600060208201905061596a60008301846153f5565b92915050565b600060408201905061598560008301856153f5565b61599260208301846153f5565b9392505050565b60006080820190506159ae60008301876153f5565b6159bb60208301866153f5565b6159c860408301856153f5565b6159d56060830184614871565b95945050505050565b600060a0820190506159f360008301886153f5565b615a0060208301876153f5565b615a0d60408301866153f5565b615a1a60608301856153f5565b615a276080830184614871565b9695505050505050565b6000604051905081810181811067ffffffffffffffff82111715615a5857615a57615deb565b5b8060405250919050565b600067ffffffffffffffff821115615a7d57615a7c615deb565b5b601f19601f8301169050602081019050919050565b600081519050919050565b600081519050919050565b600082825260208201905092915050565b600082825260208201905092915050565b600081905092915050565b6000615ae082615c66565b9150615aeb83615c66565b9250827fffffffffffffffffffffffffffffffffffffffffffffffffffffffffffffffff03821115615b2057615b1f615d5e565b5b828201905092915050565b6000615b3682615c66565b9150615b4183615c66565b925082615b5157615b50615d8d565b5b828204905092915050565b6000615b6782615c66565b9150615b7283615c66565b9250817fffffffffffffffffffffffffffffffffffffffffffffffffffffffffffffffff0483118215151615615bab57615baa615d5e565b5b828202905092915050565b6000615bc182615c66565b9150615bcc83615c66565b925082821015615bdf57615bde615d5e565b5b828203905092915050565b6000615bf582615c46565b9050919050565b60008115159050919050565b60007fffffffff0000000000000000000000000000000000000000000000000000000082169050919050565b6000615c3f82615bea565b9050919050565b600073ffffffffffffffffffffffffffffffffffffffff82169050919050565b6000819050919050565b82818337600083830152505050565b60005b83811015615c9d578082015181840152602081019050615c82565b83811115615cac576000848401525b50505050565b60006002820490506001821680615cca57607f821691505b60208210811415615cde57615cdd615dbc565b5b50919050565b6000615cef82615c66565b91507fffffffffffffffffffffffffffffffffffffffffffffffffffffffffffffffff821415615d2257615d21615d5e565b5b600182019050919050565b6000615d3882615c66565b9150615d4383615c66565b925082615d5357615d52615d8d565b5b828206905092915050565b7f4e487b7100000000000000000000000000000000000000000000000000000000600052601160045260246000fd5b7f4e487b7100000000000000000000000000000000000000000000000000000000600052601260045260246000fd5b7f4e487b7100000000000000000000000000000000000000000000000000000000600052602260045260246000fd5b7f4e487b7100000000000000000000000000000000000000000000000000000000600052604160045260246000fd5b6000601f19601f8301169050919050565b615e3481615bea565b8114615e3f57600080fd5b50565b615e4b81615bfc565b8114615e5657600080fd5b50565b615e6281615c08565b8114615e6d57600080fd5b50565b615e7981615c34565b8114615e8457600080fd5b50565b615e9081615c66565b8114615e9b57600080fd5b5056fea26469706673582212207100b55887bbf9bc60f20e3b7353cee956c3d6602603e1f2e926bd86b18f475064736f6c63430008000033",
  "linkReferences": {},
  "deployedLinkReferences": {}
}