{
  "_format": "hh-sol-artifact-1",
  "contractName": "LidSimplifiedPresaleAccess",
  "sourceName": "contracts/LidSimplifiedPresale.sol",
  "abi": [
    {
      "constant": true,
      "inputs": [
        {
          "internalType": "address",
          "name": "account",
          "type": "address"
        },
        {
          "internalType": "uint256",
          "name": "startTime",
          "type": "uint256"
        }
      ],
      "name": "getAccessTime",
      "outputs": [
        {
          "internalType": "uint256",
          "name": "accessTime",
          "type": "uint256"
        }
      ],
      "payable": false,
      "stateMutability": "view",
      "type": "function"
    },
    {
      "constant": false,
      "inputs": [
        {
          "internalType": "contract LidStaking",
          "name": "_staking",
          "type": "address"
        }
      ],
      "name": "initialize",
      "outputs": [],
      "payable": false,
      "stateMutability": "nonpayable",
      "type": "function"
    }
  ],
  "bytecode": "0x608060405234801561001057600080fd5b50610684806100206000396000f3fe608060405234801561001057600080fd5b50600436106100365760003560e01c8063c4d66de81461003b578063fa04fcfb1461007f575b600080fd5b61007d6004803603602081101561005157600080fd5b81019080803573ffffffffffffffffffffffffffffffffffffffff1690602001909291905050506100e1565b005b6100cb6004803603604081101561009557600080fd5b81019080803573ffffffffffffffffffffffffffffffffffffffff169060200190929190803590602001909291905050506102c6565b6040518082815260200191505060405180910390f35b600060019054906101000a900460ff168061010057506100ff610468565b5b8061011757506000809054906101000a900460ff16155b61016c576040517f08c379a000000000000000000000000000000000000000000000000000000000815260040180806020018281038252602e815260200180610622602e913960400191505060405180910390fd5b60008060019054906101000a900460ff1615905080156101bc576001600060016101000a81548160ff02191690831515021790555060016000806101000a81548160ff0219169083151502179055505b81603360006101000a81548173ffffffffffffffffffffffffffffffffffffffff021916908373ffffffffffffffffffffffffffffffffffffffff1602179055506040518060a001604052806969e10de76676d080000069ffffffffffffffffffff16815260200169152d02c7e14af680000069ffffffffffffffffffff168152602001690a968163f0a57b40000069ffffffffffffffffffff16815260200169054b40b1f852bda0000069ffffffffffffffffffff168152602001670de0b6b3a764000069ffffffffffffffffffff1681525060349060056102a092919061058d565b5080156102c25760008060016101000a81548160ff0219169083151502179055505b5050565b600080603360009054906101000a900473ffffffffffffffffffffffffffffffffffffffff1673ffffffffffffffffffffffffffffffffffffffff1663d7a88e3c856040518263ffffffff1660e01b8152600401808273ffffffffffffffffffffffffffffffffffffffff1673ffffffffffffffffffffffffffffffffffffffff16815260200191505060206040518083038186803b15801561036857600080fd5b505afa15801561037c573d6000803e3d6000fd5b505050506040513d602081101561039257600080fd5b8101908080519060200190929190505050905060008114156103cb576103c36103848461047f90919063ffffffff16565b915050610462565b60346000600581106103d957fe5b015481106103ea5782915050610462565b6000809050600060346000600581106103ff57fe5b015490505b82811180156104135750600582105b156104365781806001019250506034826005811061042d57fe5b01549050610404565b61045c61044d60b48461050790919063ffffffff16565b8661047f90919063ffffffff16565b93505050505b92915050565b6000803090506000813b9050600081149250505090565b6000808284019050838110156104fd576040517f08c379a000000000000000000000000000000000000000000000000000000000815260040180806020018281038252601b8152602001807f536166654d6174683a206164646974696f6e206f766572666c6f77000000000081525060200191505060405180910390fd5b8091505092915050565b60008083141561051a5760009050610587565b600082840290508284828161052b57fe5b0414610582576040517f08c379a00000000000000000000000000000000000000000000000000000000081526004018080602001828103825260218152602001806106016021913960400191505060405180910390fd5b809150505b92915050565b82600581019282156105ca579160200282015b828111156105c9578251829069ffffffffffffffffffff169055916020019190600101906105a0565b5b5090506105d791906105db565b5090565b6105fd91905b808211156105f95760008160009055506001016105e1565b5090565b9056fe536166654d6174683a206d756c7469706c69636174696f6e206f766572666c6f77436f6e747261637420696e7374616e63652068617320616c7265616479206265656e20696e697469616c697a6564a265627a7a72315820b8996913f2544c0bc6faf1e260435145e653afab7e8849000bf5f256c9a755ff64736f6c63430005100032",
  "linkReferences": {},
  "deployedLinkReferences": {}
}