{
  "_format": "hh-sol-artifact-1",
  "contractName": "LidSimplifiedPresale",
  "sourceName": "contracts/LidSimplifiedPresale.sol",
  "abi": [
    {
      "anonymous": false,
      "inputs": [
        {
          "indexed": true,
          "internalType": "address",
          "name": "previousOwner",
          "type": "address"
        },
        {
          "indexed": true,
          "internalType": "address",
          "name": "newOwner",
          "type": "address"
        }
      ],
      "name": "OwnershipTransferred",
      "type": "event"
    },
    {
      "anonymous": false,
      "inputs": [
        {
          "indexed": false,
          "internalType": "address",
          "name": "account",
          "type": "address"
        }
      ],
      "name": "Paused",
      "type": "event"
    },
    {
      "anonymous": false,
      "inputs": [
        {
          "indexed": true,
          "internalType": "address",
          "name": "account",
          "type": "address"
        }
      ],
      "name": "PauserAdded",
      "type": "event"
    },
    {
      "anonymous": false,
      "inputs": [
        {
          "indexed": true,
          "internalType": "address",
          "name": "account",
          "type": "address"
        }
      ],
      "name": "PauserRemoved",
      "type": "event"
    },
    {
      "anonymous": false,
      "inputs": [
        {
          "indexed": false,
          "internalType": "address",
          "name": "account",
          "type": "address"
        }
      ],
      "name": "Unpaused",
      "type": "event"
    },
    {
      "constant": true,
      "inputs": [
        {
          "internalType": "address",
          "name": "",
          "type": "address"
        }
      ],
      "name": "accountEthDeposit",
      "outputs": [
        {
          "internalType": "uint256",
          "name": "",
          "type": "uint256"
        }
      ],
      "payable": false,
      "stateMutability": "view",
      "type": "function"
    },
    {
      "constant": false,
      "inputs": [
        {
          "internalType": "address",
          "name": "account",
          "type": "address"
        }
      ],
      "name": "addPauser",
      "outputs": [],
      "payable": false,
      "stateMutability": "nonpayable",
      "type": "function"
    },
    {
      "constant": false,
      "inputs": [
        {
          "internalType": "address payable",
          "name": "account",
          "type": "address"
        }
      ],
      "name": "claimRefund",
      "outputs": [],
      "payable": false,
      "stateMutability": "nonpayable",
      "type": "function"
    },
    {
      "constant": false,
      "inputs": [],
      "name": "deposit",
      "outputs": [],
      "payable": true,
      "stateMutability": "payable",
      "type": "function"
    },
    {
      "constant": false,
      "inputs": [
        {
          "internalType": "address payable",
          "name": "referrer",
          "type": "address"
        }
      ],
      "name": "deposit",
      "outputs": [],
      "payable": true,
      "stateMutability": "payable",
      "type": "function"
    },
    {
      "constant": true,
      "inputs": [
        {
          "internalType": "address",
          "name": "",
          "type": "address"
        }
      ],
      "name": "earnedReferrals",
      "outputs": [
        {
          "internalType": "uint256",
          "name": "",
          "type": "uint256"
        }
      ],
      "payable": false,
      "stateMutability": "view",
      "type": "function"
    },
    {
      "constant": true,
      "inputs": [],
      "name": "finalEndTime",
      "outputs": [
        {
          "internalType": "uint256",
          "name": "",
          "type": "uint256"
        }
      ],
      "payable": false,
      "stateMutability": "view",
      "type": "function"
    },
    {
      "constant": true,
      "inputs": [],
      "name": "finalEth",
      "outputs": [
        {
          "internalType": "uint256",
          "name": "",
          "type": "uint256"
        }
      ],
      "payable": false,
      "stateMutability": "view",
      "type": "function"
    },
    {
      "constant": true,
      "inputs": [
        {
          "internalType": "address",
          "name": "account",
          "type": "address"
        }
      ],
      "name": "getRefundableEth",
      "outputs": [
        {
          "internalType": "uint256",
          "name": "",
          "type": "uint256"
        }
      ],
      "payable": false,
      "stateMutability": "view",
      "type": "function"
    },
    {
      "constant": true,
      "inputs": [],
      "name": "hardcap",
      "outputs": [
        {
          "internalType": "uint256",
          "name": "",
          "type": "uint256"
        }
      ],
      "payable": false,
      "stateMutability": "view",
      "type": "function"
    },
    {
      "constant": true,
      "inputs": [],
      "name": "hasIssuedTokens",
      "outputs": [
        {
          "internalType": "bool",
          "name": "",
          "type": "bool"
        }
      ],
      "payable": false,
      "stateMutability": "view",
      "type": "function"
    },
    {
      "constant": true,
      "inputs": [],
      "name": "hasSentToUniswap",
      "outputs": [
        {
          "internalType": "bool",
          "name": "",
          "type": "bool"
        }
      ],
      "payable": false,
      "stateMutability": "view",
      "type": "function"
    },
    {
      "constant": false,
      "inputs": [
        {
          "internalType": "uint256",
          "name": "_maxBuyPerAddress",
          "type": "uint256"
        },
        {
          "internalType": "uint256",
          "name": "_uniswapEthBP",
          "type": "uint256"
        },
        {
          "internalType": "uint256",
          "name": "_lidEthBP",
          "type": "uint256"
        },
        {
          "internalType": "uint256",
          "name": "_referralBP",
          "type": "uint256"
        },
        {
          "internalType": "uint256",
          "name": "_hardcap",
          "type": "uint256"
        },
        {
          "internalType": "address",
          "name": "owner",
          "type": "address"
        },
        {
          "internalType": "contract LidSimplifiedPresaleTimer",
          "name": "_timer",
          "type": "address"
        },
        {
          "internalType": "contract LidSimplifiedPresaleRedeemer",
          "name": "_redeemer",
          "type": "address"
        },
        {
          "internalType": "contract LidSimplifiedPresaleAccess",
          "name": "_access",
          "type": "address"
        },
        {
          "internalType": "contract IERC20",
          "name": "_token",
          "type": "address"
        },
        {
          "internalType": "contract IUniswapV2Router01",
          "name": "_uniswapRouter",
          "type": "address"
        },
        {
          "internalType": "address payable",
          "name": "_lidFund",
          "type": "address"
        }
      ],
      "name": "initialize",
      "outputs": [],
      "payable": false,
      "stateMutability": "nonpayable",
      "type": "function"
    },
    {
      "constant": false,
      "inputs": [],
      "name": "initialize",
      "outputs": [],
      "payable": false,
      "stateMutability": "nonpayable",
      "type": "function"
    },
    {
      "constant": false,
      "inputs": [
        {
          "internalType": "address",
          "name": "sender",
          "type": "address"
        }
      ],
      "name": "initialize",
      "outputs": [],
      "payable": false,
      "stateMutability": "nonpayable",
      "type": "function"
    },
    {
      "constant": true,
      "inputs": [],
      "name": "isOwner",
      "outputs": [
        {
          "internalType": "bool",
          "name": "",
          "type": "bool"
        }
      ],
      "payable": false,
      "stateMutability": "view",
      "type": "function"
    },
    {
      "constant": true,
      "inputs": [
        {
          "internalType": "address",
          "name": "account",
          "type": "address"
        }
      ],
      "name": "isPauser",
      "outputs": [
        {
          "internalType": "bool",
          "name": "",
          "type": "bool"
        }
      ],
      "payable": false,
      "stateMutability": "view",
      "type": "function"
    },
    {
      "constant": true,
      "inputs": [],
      "name": "isPresaleEnded",
      "outputs": [
        {
          "internalType": "bool",
          "name": "",
          "type": "bool"
        }
      ],
      "payable": false,
      "stateMutability": "view",
      "type": "function"
    },
    {
      "constant": true,
      "inputs": [],
      "name": "isRefunding",
      "outputs": [
        {
          "internalType": "bool",
          "name": "",
          "type": "bool"
        }
      ],
      "payable": false,
      "stateMutability": "view",
      "type": "function"
    },
    {
      "constant": false,
      "inputs": [],
      "name": "issueTokens",
      "outputs": [],
      "payable": false,
      "stateMutability": "nonpayable",
      "type": "function"
    },
    {
      "constant": true,
      "inputs": [],
      "name": "lidEthBP",
      "outputs": [
        {
          "internalType": "uint256",
          "name": "",
          "type": "uint256"
        }
      ],
      "payable": false,
      "stateMutability": "view",
      "type": "function"
    },
    {
      "constant": true,
      "inputs": [],
      "name": "maxBuyPerAddress",
      "outputs": [
        {
          "internalType": "uint256",
          "name": "",
          "type": "uint256"
        }
      ],
      "payable": false,
      "stateMutability": "view",
      "type": "function"
    },
    {
      "constant": true,
      "inputs": [],
      "name": "owner",
      "outputs": [
        {
          "internalType": "address",
          "name": "",
          "type": "address"
        }
      ],
      "payable": false,
      "stateMutability": "view",
      "type": "function"
    },
    {
      "constant": false,
      "inputs": [],
      "name": "pause",
      "outputs": [],
      "payable": false,
      "stateMutability": "nonpayable",
      "type": "function"
    },
    {
      "constant": true,
      "inputs": [],
      "name": "paused",
      "outputs": [
        {
          "internalType": "bool",
          "name": "",
          "type": "bool"
        }
      ],
      "payable": false,
      "stateMutability": "view",
      "type": "function"
    },
    {
      "constant": true,
      "inputs": [],
      "name": "presaleTokenBP",
      "outputs": [
        {
          "internalType": "uint256",
          "name": "",
          "type": "uint256"
        }
      ],
      "payable": false,
      "stateMutability": "view",
      "type": "function"
    },
    {
      "constant": false,
      "inputs": [],
      "name": "redeem",
      "outputs": [],
      "payable": false,
      "stateMutability": "nonpayable",
      "type": "function"
    },
    {
      "constant": true,
      "inputs": [],
      "name": "referralBP",
      "outputs": [
        {
          "internalType": "uint256",
          "name": "",
          "type": "uint256"
        }
      ],
      "payable": false,
      "stateMutability": "view",
      "type": "function"
    },
    {
      "constant": true,
      "inputs": [
        {
          "internalType": "address",
          "name": "",
          "type": "address"
        }
      ],
      "name": "referralCounts",
      "outputs": [
        {
          "internalType": "uint256",
          "name": "",
          "type": "uint256"
        }
      ],
      "payable": false,
      "stateMutability": "view",
      "type": "function"
    },
    {
      "constant": true,
      "inputs": [
        {
          "internalType": "address",
          "name": "",
          "type": "address"
        }
      ],
      "name": "refundedEth",
      "outputs": [
        {
          "internalType": "uint256",
          "name": "",
          "type": "uint256"
        }
      ],
      "payable": false,
      "stateMutability": "view",
      "type": "function"
    },
    {
      "constant": false,
      "inputs": [
        {
          "internalType": "address payable",
          "name": "receiver",
          "type": "address"
        },
        {
          "internalType": "uint256",
          "name": "amount",
          "type": "uint256"
        }
      ],
      "name": "releaseEthToAddress",
      "outputs": [
        {
          "internalType": "uint256",
          "name": "",
          "type": "uint256"
        }
      ],
      "payable": false,
      "stateMutability": "nonpayable",
      "type": "function"
    },
    {
      "constant": false,
      "inputs": [],
      "name": "renounceOwnership",
      "outputs": [],
      "payable": false,
      "stateMutability": "nonpayable",
      "type": "function"
    },
    {
      "constant": false,
      "inputs": [],
      "name": "renouncePauser",
      "outputs": [],
      "payable": false,
      "stateMutability": "nonpayable",
      "type": "function"
    },
    {
      "constant": false,
      "inputs": [],
      "name": "sendToUniswap",
      "outputs": [],
      "payable": false,
      "stateMutability": "nonpayable",
      "type": "function"
    },
    {
      "constant": false,
      "inputs": [
        {
          "internalType": "uint256",
          "name": "_uniswapTokenBP",
          "type": "uint256"
        },
        {
          "internalType": "uint256",
          "name": "_presaleTokenBP",
          "type": "uint256"
        },
        {
          "internalType": "address[]",
          "name": "_tokenPools",
          "type": "address[]"
        },
        {
          "internalType": "uint256[]",
          "name": "_tokenPoolBPs",
          "type": "uint256[]"
        }
      ],
      "name": "setTokenPools",
      "outputs": [],
      "payable": false,
      "stateMutability": "nonpayable",
      "type": "function"
    },
    {
      "constant": false,
      "inputs": [],
      "name": "startRefund",
      "outputs": [],
      "payable": false,
      "stateMutability": "nonpayable",
      "type": "function"
    },
    {
      "constant": true,
      "inputs": [
        {
          "internalType": "uint256",
          "name": "",
          "type": "uint256"
        }
      ],
      "name": "tokenPoolBPs",
      "outputs": [
        {
          "internalType": "uint256",
          "name": "",
          "type": "uint256"
        }
      ],
      "payable": false,
      "stateMutability": "view",
      "type": "function"
    },
    {
      "constant": true,
      "inputs": [
        {
          "internalType": "uint256",
          "name": "",
          "type": "uint256"
        }
      ],
      "name": "tokenPools",
      "outputs": [
        {
          "internalType": "address",
          "name": "",
          "type": "address"
        }
      ],
      "payable": false,
      "stateMutability": "view",
      "type": "function"
    },
    {
      "constant": false,
      "inputs": [],
      "name": "topUpRefundFund",
      "outputs": [],
      "payable": true,
      "stateMutability": "payable",
      "type": "function"
    },
    {
      "constant": true,
      "inputs": [],
      "name": "totalTokens",
      "outputs": [
        {
          "internalType": "uint256",
          "name": "",
          "type": "uint256"
        }
      ],
      "payable": false,
      "stateMutability": "view",
      "type": "function"
    },
    {
      "constant": false,
      "inputs": [
        {
          "internalType": "address",
          "name": "newOwner",
          "type": "address"
        }
      ],
      "name": "transferOwnership",
      "outputs": [],
      "payable": false,
      "stateMutability": "nonpayable",
      "type": "function"
    },
    {
      "constant": true,
      "inputs": [],
      "name": "uniswapEthBP",
      "outputs": [
        {
          "internalType": "uint256",
          "name": "",
          "type": "uint256"
        }
      ],
      "payable": false,
      "stateMutability": "view",
      "type": "function"
    },
    {
      "constant": true,
      "inputs": [],
      "name": "uniswapTokenBP",
      "outputs": [
        {
          "internalType": "uint256",
          "name": "",
          "type": "uint256"
        }
      ],
      "payable": false,
      "stateMutability": "view",
      "type": "function"
    },
    {
      "constant": false,
      "inputs": [],
      "name": "unpause",
      "outputs": [],
      "payable": false,
      "stateMutability": "nonpayable",
      "type": "function"
    },
    {
      "constant": false,
      "inputs": [
        {
          "internalType": "uint256",
          "name": "valueWei",
          "type": "uint256"
        }
      ],
      "name": "updateHardcap",
      "outputs": [],
      "payable": false,
      "stateMutability": "nonpayable",
      "type": "function"
    },
    {
      "constant": false,
      "inputs": [
        {
          "internalType": "uint256",
          "name": "valueWei",
          "type": "uint256"
        }
      ],
      "name": "updateMaxBuy",
      "outputs": [],
      "payable": false,
      "stateMutability": "nonpayable",
      "type": "function"
    }
  ],
  "bytecode": "0x6080604052615586806100136000396000f3fe60806040526004361061027c5760003560e01c80638129fc1c1161014f578063bed68374116100c1578063e05ba89a1161007a578063e05ba89a14610d07578063e11f891b14610d32578063e668d6d814610d3c578063f2fde38b14610d8b578063f340fa0114610ddc578063f562e73614610e205761027c565b8063bed6837414610b9c578063bffa55d514610bcb578063c4d66de814610c1c578063cec297a014610c6d578063d0e30db014610cd2578063d7ca816614610cdc5761027c565b806393daed4c1161011357806393daed4c14610a4a578063974499da14610aaf5780639d6fb02014610b14578063adf4a14414610b43578063b071cbe614610b5a578063be040fb014610b855761027c565b80638129fc1c1461094557806382dc1ec41461095c5780638456cb59146109ad5780638da5cb5b146109c45780638f32d59b14610a1b5761027c565b806358881304116101f3578063715018a6116101ac578063715018a6146107ff57806376c80776146108165780637b31a859146108855780637b6f299c146108c05780637decf27f146108eb5780637e1c0c091461091a5761027c565b806358881304146105f85780635c975abb146106335780635eb45c001461066257806360ab5852146107a65780636a73c404146107bd5780636ef8d66d146107e85761027c565b80633529626f116102455780633529626f146103e25780633f4ba83a1461044757806341f059fa1461045e57806344cbe5de1461054d57806346fbf68e146105645780634c17989a146105cd5761027c565b8062c0f9161461028157806302249d9b146102fc5780630655e4001461032757806306e950961461035257806330c9b114146103b7575b600080fd5b34801561028d57600080fd5b506102ba600480360360208110156102a457600080fd5b8101908080359060200190929190505050610e4f565b604051808273ffffffffffffffffffffffffffffffffffffffff1673ffffffffffffffffffffffffffffffffffffffff16815260200191505060405180910390f35b34801561030857600080fd5b50610311610e8c565b6040518082815260200191505060405180910390f35b34801561033357600080fd5b5061033c610e93565b6040518082815260200191505060405180910390f35b34801561035e57600080fd5b506103a16004803603602081101561037557600080fd5b81019080803573ffffffffffffffffffffffffffffffffffffffff169060200190929190505050610e9a565b6040518082815260200191505060405180910390f35b3480156103c357600080fd5b506103cc610eb3565b6040518082815260200191505060405180910390f35b3480156103ee57600080fd5b506104316004803603602081101561040557600080fd5b81019080803573ffffffffffffffffffffffffffffffffffffffff169060200190929190505050610eba565b6040518082815260200191505060405180910390f35b34801561045357600080fd5b5061045c610ed3565b005b34801561046a57600080fd5b5061054b6004803603608081101561048157600080fd5b810190808035906020019092919080359060200190929190803590602001906401000000008111156104b257600080fd5b8201836020820111156104c457600080fd5b803590602001918460208302840111640100000000831117156104e657600080fd5b90919293919293908035906020019064010000000081111561050757600080fd5b82018360208201111561051957600080fd5b8035906020019184602083028401116401000000008311171561053b57600080fd5b9091929391929390505050611041565b005b34801561055957600080fd5b50610562611379565b005b34801561057057600080fd5b506105b36004803603602081101561058757600080fd5b81019080803573ffffffffffffffffffffffffffffffffffffffff169060200190929190505050611978565b604051808215151515815260200191505060405180910390f35b3480156105d957600080fd5b506105e2611995565b6040518082815260200191505060405180910390f35b34801561060457600080fd5b506106316004803603602081101561061b57600080fd5b810190808035906020019092919050505061199c565b005b34801561063f57600080fd5b50610648611a20565b604051808215151515815260200191505060405180910390f35b34801561066e57600080fd5b506107a4600480360361018081101561068657600080fd5b810190808035906020019092919080359060200190929190803590602001909291908035906020019092919080359060200190929190803573ffffffffffffffffffffffffffffffffffffffff169060200190929190803573ffffffffffffffffffffffffffffffffffffffff169060200190929190803573ffffffffffffffffffffffffffffffffffffffff169060200190929190803573ffffffffffffffffffffffffffffffffffffffff169060200190929190803573ffffffffffffffffffffffffffffffffffffffff169060200190929190803573ffffffffffffffffffffffffffffffffffffffff169060200190929190803573ffffffffffffffffffffffffffffffffffffffff169060200190929190505050611a37565b005b3480156107b257600080fd5b506107bb611f6f565b005b3480156107c957600080fd5b506107d2612576565b6040518082815260200191505060405180910390f35b3480156107f457600080fd5b506107fd61257c565b005b34801561080b57600080fd5b5061081461258e565b005b34801561082257600080fd5b5061086f6004803603604081101561083957600080fd5b81019080803573ffffffffffffffffffffffffffffffffffffffff169060200190929190803590602001909291905050506126c9565b6040518082815260200191505060405180910390f35b34801561089157600080fd5b506108be600480360360208110156108a857600080fd5b8101908080359060200190929190505050612898565b005b3480156108cc57600080fd5b506108d561291d565b6040518082815260200191505060405180910390f35b3480156108f757600080fd5b50610900612924565b604051808215151515815260200191505060405180910390f35b34801561092657600080fd5b5061092f612abe565b6040518082815260200191505060405180910390f35b34801561095157600080fd5b5061095a612ac5565b005b34801561096857600080fd5b506109ab6004803603602081101561097f57600080fd5b81019080803573ffffffffffffffffffffffffffffffffffffffff169060200190929190505050612bcc565b005b3480156109b957600080fd5b506109c2612c3d565b005b3480156109d057600080fd5b506109d9612dac565b604051808273ffffffffffffffffffffffffffffffffffffffff1673ffffffffffffffffffffffffffffffffffffffff16815260200191505060405180910390f35b348015610a2757600080fd5b50610a30612dd6565b604051808215151515815260200191505060405180910390f35b348015610a5657600080fd5b50610a9960048036036020811015610a6d57600080fd5b81019080803573ffffffffffffffffffffffffffffffffffffffff169060200190929190505050612e35565b6040518082815260200191505060405180910390f35b348015610abb57600080fd5b50610afe60048036036020811015610ad257600080fd5b81019080803573ffffffffffffffffffffffffffffffffffffffff169060200190929190505050612e4e565b6040518082815260200191505060405180910390f35b348015610b2057600080fd5b50610b29612fbc565b604051808215151515815260200191505060405180910390f35b348015610b4f57600080fd5b50610b58612fd0565b005b348015610b6657600080fd5b50610b6f613070565b6040518082815260200191505060405180910390f35b348015610b9157600080fd5b50610b9a613077565b005b348015610ba857600080fd5b50610bb16135a5565b604051808215151515815260200191505060405180910390f35b348015610bd757600080fd5b50610c1a60048036036020811015610bee57600080fd5b81019080803573ffffffffffffffffffffffffffffffffffffffff1690602001909291905050506135b9565b005b348015610c2857600080fd5b50610c6b60048036036020811015610c3f57600080fd5b81019080803573ffffffffffffffffffffffffffffffffffffffff169060200190929190505050613823565b005b348015610c7957600080fd5b50610cbc60048036036020811015610c9057600080fd5b81019080803573ffffffffffffffffffffffffffffffffffffffff169060200190929190505050613947565b6040518082815260200191505060405180910390f35b610cda613960565b005b348015610ce857600080fd5b50610cf16139ef565b6040518082815260200191505060405180910390f35b348015610d1357600080fd5b50610d1c6139f6565b6040518082815260200191505060405180910390f35b610d3a6139fd565b005b348015610d4857600080fd5b50610d7560048036036020811015610d5f57600080fd5b8101908080359060200190929190505050613a79565b6040518082815260200191505060405180910390f35b348015610d9757600080fd5b50610dda60048036036020811015610dae57600080fd5b81019080803573ffffffffffffffffffffffffffffffffffffffff169060200190929190505050613a9b565b005b610e1e60048036036020811015610df257600080fd5b81019080803573ffffffffffffffffffffffffffffffffffffffff169060200190929190505050613b21565b005b348015610e2c57600080fd5b50610e35614713565b604051808215151515815260200191505060405180910390f35b6101058181548110610e5d57fe5b906000526020600020016000915054906101000a900473ffffffffffffffffffffffffffffffffffffffff1681565b61010b5481565b6101025481565b6101136020528060005260406000206000915090505481565b6101005481565b6101126020528060005260406000206000915090505481565b610ee3610ede614727565b611978565b610f38576040517f08c379a00000000000000000000000000000000000000000000000000000000081526004018080602001828103825260308152602001806153656030913960400191505060405180910390fd5b60cc60009054906101000a900460ff16610fba576040517f08c379a00000000000000000000000000000000000000000000000000000000081526004018080602001828103825260148152602001807f5061757361626c653a206e6f742070617573656400000000000000000000000081525060200191505060405180910390fd5b600060cc60006101000a81548160ff0219169083151502179055507f5db9ee0a495bf2e6ff9c91a7834c1ba4fdd244a5e8aa4e537bd38aeae4b073aa610ffe614727565b604051808273ffffffffffffffffffffffffffffffffffffffff1673ffffffffffffffffffffffffffffffffffffffff16815260200191505060405180910390a1565b611049612dd6565b6110bb576040517f08c379a00000000000000000000000000000000000000000000000000000000081526004018080602001828103825260208152602001807f4f776e61626c653a2063616c6c6572206973206e6f7420746865206f776e657281525060200191505060405180910390fd5b60cc60009054906101000a900460ff161561113e576040517f08c379a00000000000000000000000000000000000000000000000000000000081526004018080602001828103825260108152602001807f5061757361626c653a207061757365640000000000000000000000000000000081525060200191505060405180910390fd5b81819050848490501461119c576040517f08c379a00000000000000000000000000000000000000000000000000000000081526004018080602001828103825260368152602001806154fb6036913960400191505060405180910390fd5b61010560006111ab91906152af565b61010660006111ba91906152d0565b8561010381905550846101048190555060008090505b84849050811015611275576101058585838181106111ea57fe5b9050602002013573ffffffffffffffffffffffffffffffffffffffff1690806001815401808255809150509060018203906000526020600020016000909192909190916101000a81548173ffffffffffffffffffffffffffffffffffffffff021916908373ffffffffffffffffffffffffffffffffffffffff160217905550508060010190506111d0565b506000611291610104546101035461472f90919063ffffffff16565b905060008090505b83839050811015611315576101068484838181106112b357fe5b9050602002013590806001815401808255809150509060018203906000526020600020016000909192909190915055506113088484838181106112f257fe5b905060200201358361472f90919063ffffffff16565b9150806001019050611299565b506127108114611370576040517f08c379a00000000000000000000000000000000000000000000000000000000081526004018080602001828103825260388152602001806154046038913960400191505060405180910390fd5b50505050505050565b61010e60009054906101000a900473ffffffffffffffffffffffffffffffffffffffff1673ffffffffffffffffffffffffffffffffffffffff1663544736e66040518163ffffffff1660e01b815260040160206040518083038186803b1580156113e257600080fd5b505afa1580156113f6573d6000803e3d6000fd5b505050506040513d602081101561140c57600080fd5b810190808051906020019092919050505061148f576040517f08c379a00000000000000000000000000000000000000000000000000000000081526004018080602001828103825260188152602001807f50726573616c65206e6f742079657420737461727465642e000000000000000081525060200191505060405180910390fd5b611497612924565b611509576040517f08c379a000000000000000000000000000000000000000000000000000000000815260040180806020018281038252601a8152602001807f50726573616c6520686173206e6f742079657420656e6465642e00000000000081525060200191505060405180910390fd5b60016066600082825401925050819055506000606654905060cc60009054906101000a900460ff16156115a4576040517f08c379a00000000000000000000000000000000000000000000000000000000081526004018080602001828103825260108152602001807f5061757361626c653a207061757365640000000000000000000000000000000081525060200191505060405180910390fd5b3273ffffffffffffffffffffffffffffffffffffffff163373ffffffffffffffffffffffffffffffffffffffff1614611628576040517f08c379a000000000000000000000000000000000000000000000000000000000815260040180806020018281038252602a815260200180615317602a913960400191505060405180910390fd5b600061010580549050116116a4576040517f08c379a00000000000000000000000000000000000000000000000000000000081526004018080602001828103825260198152602001807f4d75737420686176652073657420746f6b656e20706f6f6c730000000000000081525060200191505060405180910390fd5b61010960009054906101000a900460ff1615611728576040517f08c379a000000000000000000000000000000000000000000000000000000000815260040180806020018281038252601c8152602001807f48617320616c72656164792073656e7420746f20556e69737761702e0000000081525060200191505060405180910390fd5b4261010a819055504761010b81905550600161010960006101000a81548160ff021916908315150217905550600061176f61010354610108546147b790919063ffffffff16565b9050600061178c6101015461010b546147b790919063ffffffff16565b905061010d60009054906101000a900473ffffffffffffffffffffffffffffffffffffffff1673ffffffffffffffffffffffffffffffffffffffff1663f305d7198261010c60009054906101000a900473ffffffffffffffffffffffffffffffffffffffff1685868661dead426040518863ffffffff1660e01b8152600401808773ffffffffffffffffffffffffffffffffffffffff1673ffffffffffffffffffffffffffffffffffffffff1681526020018681526020018581526020018481526020018373ffffffffffffffffffffffffffffffffffffffff1673ffffffffffffffffffffffffffffffffffffffff16815260200182815260200196505050505050506060604051808303818588803b1580156118a957600080fd5b505af11580156118bd573d6000803e3d6000fd5b50505050506040513d60608110156118d457600080fd5b8101908080519060200190929190805190602001909291908051906020019092919050505050505050506066548114611975576040517f08c379a000000000000000000000000000000000000000000000000000000000815260040180806020018281038252601f8152602001807f5265656e7472616e637947756172643a207265656e7472616e742063616c6c0081525060200191505060405180910390fd5b50565b600061198e8260996147fa90919063ffffffff16565b9050919050565b6101015481565b6119a4612dd6565b611a16576040517f08c379a00000000000000000000000000000000000000000000000000000000081526004018080602001828103825260208152602001807f4f776e61626c653a2063616c6c6572206973206e6f7420746865206f776e657281525060200191505060405180910390fd5b8060ff8190555050565b600060cc60009054906101000a900460ff16905090565b600060019054906101000a900460ff1680611a565750611a556148d8565b5b80611a6d57506000809054906101000a900460ff16155b611ac2576040517f08c379a000000000000000000000000000000000000000000000000000000000815260040180806020018281038252602e8152602001806154cd602e913960400191505060405180910390fd5b60008060019054906101000a900460ff161590508015611b12576001600060016101000a81548160ff02191690831515021790555060016000806101000a81548160ff0219169083151502179055505b611b1b336148ef565b611b2433613823565b611b2c612ac5565b8361010c60006101000a81548173ffffffffffffffffffffffffffffffffffffffff021916908373ffffffffffffffffffffffffffffffffffffffff1602179055508661010e60006101000a81548173ffffffffffffffffffffffffffffffffffffffff021916908373ffffffffffffffffffffffffffffffffffffffff1602179055508561010f60006101000a81548173ffffffffffffffffffffffffffffffffffffffff021916908373ffffffffffffffffffffffffffffffffffffffff1602179055508461011060006101000a81548173ffffffffffffffffffffffffffffffffffffffff021916908373ffffffffffffffffffffffffffffffffffffffff1602179055508161011160006101000a81548173ffffffffffffffffffffffffffffffffffffffff021916908373ffffffffffffffffffffffffffffffffffffffff1602179055508c60ff819055508b610101819055508a61010281905550896101008190555088610107819055508261010d60006101000a81548173ffffffffffffffffffffffffffffffffffffffff021916908373ffffffffffffffffffffffffffffffffffffffff16021790555061010c60009054906101000a900473ffffffffffffffffffffffffffffffffffffffff1673ffffffffffffffffffffffffffffffffffffffff166318160ddd6040518163ffffffff1660e01b815260040160206040518083038186803b158015611d4857600080fd5b505afa158015611d5c573d6000803e3d6000fd5b505050506040513d6020811015611d7257600080fd5b81019080805190602001909291905050506101088190555061010c60009054906101000a900473ffffffffffffffffffffffffffffffffffffffff1673ffffffffffffffffffffffffffffffffffffffff1663095ea7b361010d60009054906101000a900473ffffffffffffffffffffffffffffffffffffffff1661010c60009054906101000a900473ffffffffffffffffffffffffffffffffffffffff1673ffffffffffffffffffffffffffffffffffffffff166318160ddd6040518163ffffffff1660e01b815260040160206040518083038186803b158015611e5657600080fd5b505afa158015611e6a573d6000803e3d6000fd5b505050506040513d6020811015611e8057600080fd5b81019080805190602001909291905050506040518363ffffffff1660e01b8152600401808373ffffffffffffffffffffffffffffffffffffffff1673ffffffffffffffffffffffffffffffffffffffff16815260200182815260200192505050602060405180830381600087803b158015611efa57600080fd5b505af1158015611f0e573d6000803e3d6000fd5b505050506040513d6020811015611f2457600080fd5b810190808051906020019092919050505050611f3f88614aad565b8015611f605760008060016101000a81548160ff0219169083151502179055505b50505050505050505050505050565b61010e60009054906101000a900473ffffffffffffffffffffffffffffffffffffffff1673ffffffffffffffffffffffffffffffffffffffff1663544736e66040518163ffffffff1660e01b815260040160206040518083038186803b158015611fd857600080fd5b505afa158015611fec573d6000803e3d6000fd5b505050506040513d602081101561200257600080fd5b8101908080519060200190929190505050612085576040517f08c379a00000000000000000000000000000000000000000000000000000000081526004018080602001828103825260188152602001807f50726573616c65206e6f742079657420737461727465642e000000000000000081525060200191505060405180910390fd5b61208d612924565b6120ff576040517f08c379a000000000000000000000000000000000000000000000000000000000815260040180806020018281038252601a8152602001807f50726573616c6520686173206e6f742079657420656e6465642e00000000000081525060200191505060405180910390fd5b60cc60009054906101000a900460ff1615612182576040517f08c379a00000000000000000000000000000000000000000000000000000000081526004018080602001828103825260108152602001807f5061757361626c653a207061757365640000000000000000000000000000000081525060200191505060405180910390fd5b61010960009054906101000a900460ff16612205576040517f08c379a000000000000000000000000000000000000000000000000000000000815260040180806020018281038252601c8152602001807f486173206e6f74207965742073656e7420746f20556e69737761702e0000000081525060200191505060405180910390fd5b61010960019054906101000a900460ff1615612289576040517f08c379a000000000000000000000000000000000000000000000000000000000815260040180806020018281038252601a8152602001807f48617320616c72656164792069737375656420746f6b656e732e00000000000081525060200191505060405180910390fd5b600161010960016101000a81548160ff02191690831515021790555060006122c1600161010580549050614bf390919063ffffffff16565b905060008090505b818110156124275761010c60009054906101000a900473ffffffffffffffffffffffffffffffffffffffff1673ffffffffffffffffffffffffffffffffffffffff1663a9059cbb610105838154811061231e57fe5b9060005260206000200160009054906101000a900473ffffffffffffffffffffffffffffffffffffffff16612377610106858154811061235a57fe5b9060005260206000200154610108546147b790919063ffffffff16565b6040518363ffffffff1660e01b8152600401808373ffffffffffffffffffffffffffffffffffffffff1673ffffffffffffffffffffffffffffffffffffffff16815260200182815260200192505050602060405180830381600087803b1580156123e057600080fd5b505af11580156123f4573d6000803e3d6000fd5b505050506040513d602081101561240a57600080fd5b8101908080519060200190929190505050508060010190506122c9565b5061010c60009054906101000a900473ffffffffffffffffffffffffffffffffffffffff1673ffffffffffffffffffffffffffffffffffffffff1663a9059cbb610105838154811061247557fe5b9060005260206000200160009054906101000a900473ffffffffffffffffffffffffffffffffffffffff166124ce61010685815481106124b157fe5b9060005260206000200154610108546147b790919063ffffffff16565b6040518363ffffffff1660e01b8152600401808373ffffffffffffffffffffffffffffffffffffffff1673ffffffffffffffffffffffffffffffffffffffff16815260200182815260200192505050602060405180830381600087803b15801561253757600080fd5b505af115801561254b573d6000803e3d6000fd5b505050506040513d602081101561256157600080fd5b81019080805190602001909291905050505050565b60ff5481565b61258c612587614727565b614c3d565b565b612596612dd6565b612608576040517f08c379a00000000000000000000000000000000000000000000000000000000081526004018080602001828103825260208152602001807f4f776e61626c653a2063616c6c6572206973206e6f7420746865206f776e657281525060200191505060405180910390fd5b600073ffffffffffffffffffffffffffffffffffffffff16603360009054906101000a900473ffffffffffffffffffffffffffffffffffffffff1673ffffffffffffffffffffffffffffffffffffffff167f8be0079c531659141344cd1fd0a4f28419497f9722a3daafe3b4186f6b6457e060405160405180910390a36000603360006101000a81548173ffffffffffffffffffffffffffffffffffffffff021916908373ffffffffffffffffffffffffffffffffffffffff160217905550565b60006126d3612dd6565b612745576040517f08c379a00000000000000000000000000000000000000000000000000000000081526004018080602001828103825260208152602001807f4f776e61626c653a2063616c6c6572206973206e6f7420746865206f776e657281525060200191505060405180910390fd5b60cc60009054906101000a900460ff16156127c8576040517f08c379a00000000000000000000000000000000000000000000000000000000081526004018080602001828103825260108152602001807f5061757361626c653a207061757365640000000000000000000000000000000081525060200191505060405180910390fd5b61010960009054906101000a900460ff1661284b576040517f08c379a000000000000000000000000000000000000000000000000000000000815260040180806020018281038252601c8152602001807f486173206e6f74207965742073656e7420746f20556e69737761702e0000000081525060200191505060405180910390fd5b8273ffffffffffffffffffffffffffffffffffffffff166108fc839081150290604051600060405180830381858888f19350505050158015612891573d6000803e3d6000fd5b5092915050565b6128a0612dd6565b612912576040517f08c379a00000000000000000000000000000000000000000000000000000000081526004018080602001828103825260208152602001807f4f776e61626c653a2063616c6c6572206973206e6f7420746865206f776e657281525060200191505060405180910390fd5b806101078190555050565b6101035481565b60008061010e60009054906101000a900473ffffffffffffffffffffffffffffffffffffffff1673ffffffffffffffffffffffffffffffffffffffff16633197cbb66040518163ffffffff1660e01b815260040160206040518083038186803b15801561299057600080fd5b505afa1580156129a4573d6000803e3d6000fd5b505050506040513d60208110156129ba57600080fd5b8101908080519060200190929190505050905061010960009054906101000a900460ff16156129ed576001915050612abb565b6101075447101580612ab7575061010e60009054906101000a900473ffffffffffffffffffffffffffffffffffffffff1673ffffffffffffffffffffffffffffffffffffffff1663544736e66040518163ffffffff1660e01b815260040160206040518083038186803b158015612a6357600080fd5b505afa158015612a77573d6000803e3d6000fd5b505050506040513d6020811015612a8d57600080fd5b81019080805190602001909291905050508015612ab657508042118015612ab5575060008114155b5b5b9150505b90565b6101085481565b600060019054906101000a900460ff1680612ae45750612ae36148d8565b5b80612afb57506000809054906101000a900460ff16155b612b50576040517f08c379a000000000000000000000000000000000000000000000000000000000815260040180806020018281038252602e8152602001806154cd602e913960400191505060405180910390fd5b60008060019054906101000a900460ff161590508015612ba0576001600060016101000a81548160ff02191690831515021790555060016000806101000a81548160ff0219169083151502179055505b60016066819055508015612bc95760008060016101000a81548160ff0219169083151502179055505b50565b612bdc612bd7614727565b611978565b612c31576040517f08c379a00000000000000000000000000000000000000000000000000000000081526004018080602001828103825260308152602001806153656030913960400191505060405180910390fd5b612c3a81614c97565b50565b612c4d612c48614727565b611978565b612ca2576040517f08c379a00000000000000000000000000000000000000000000000000000000081526004018080602001828103825260308152602001806153656030913960400191505060405180910390fd5b60cc60009054906101000a900460ff1615612d25576040517f08c379a00000000000000000000000000000000000000000000000000000000081526004018080602001828103825260108152602001807f5061757361626c653a207061757365640000000000000000000000000000000081525060200191505060405180910390fd5b600160cc60006101000a81548160ff0219169083151502179055507f62e78cea01bee320cd4e420270b5ea74000d11b0c9f74754ebdbfc544b05a258612d69614727565b604051808273ffffffffffffffffffffffffffffffffffffffff1673ffffffffffffffffffffffffffffffffffffffff16815260200191505060405180910390a1565b6000603360009054906101000a900473ffffffffffffffffffffffffffffffffffffffff16905090565b6000603360009054906101000a900473ffffffffffffffffffffffffffffffffffffffff1673ffffffffffffffffffffffffffffffffffffffff16612e19614727565b73ffffffffffffffffffffffffffffffffffffffff1614905090565b6101156020528060005260406000206000915090505481565b600061011660009054906101000a900460ff16612e6e5760009050612fb7565b612fb461011560008473ffffffffffffffffffffffffffffffffffffffff1673ffffffffffffffffffffffffffffffffffffffff16815260200190815260200160002054612fa6610100546127100361010f60009054906101000a900473ffffffffffffffffffffffffffffffffffffffff1673ffffffffffffffffffffffffffffffffffffffff1663835dada0876040518263ffffffff1660e01b8152600401808273ffffffffffffffffffffffffffffffffffffffff1673ffffffffffffffffffffffffffffffffffffffff16815260200191505060206040518083038186803b158015612f5d57600080fd5b505afa158015612f71573d6000803e3d6000fd5b505050506040513d6020811015612f8757600080fd5b8101908080519060200190929190505050614cf190919063ffffffff16565b614bf390919063ffffffff16565b90505b919050565b61011660009054906101000a900460ff1681565b612fd8612dd6565b61304a576040517f08c379a00000000000000000000000000000000000000000000000000000000081526004018080602001828103825260208152602001807f4f776e61626c653a2063616c6c6572206973206e6f7420746865206f776e657281525060200191505060405180910390fd5b613052612c3d565b600161011660006101000a81548160ff021916908315150217905550565b6101075481565b61010e60009054906101000a900473ffffffffffffffffffffffffffffffffffffffff1673ffffffffffffffffffffffffffffffffffffffff1663544736e66040518163ffffffff1660e01b815260040160206040518083038186803b1580156130e057600080fd5b505afa1580156130f4573d6000803e3d6000fd5b505050506040513d602081101561310a57600080fd5b810190808051906020019092919050505061318d576040517f08c379a00000000000000000000000000000000000000000000000000000000081526004018080602001828103825260188152602001807f50726573616c65206e6f742079657420737461727465642e000000000000000081525060200191505060405180910390fd5b613195612924565b613207576040517f08c379a000000000000000000000000000000000000000000000000000000000815260040180806020018281038252601a8152602001807f50726573616c6520686173206e6f742079657420656e6465642e00000000000081525060200191505060405180910390fd5b60cc60009054906101000a900460ff161561328a576040517f08c379a00000000000000000000000000000000000000000000000000000000081526004018080602001828103825260108152602001807f5061757361626c653a207061757365640000000000000000000000000000000081525060200191505060405180910390fd5b61010960009054906101000a900460ff166132f0576040517f08c379a000000000000000000000000000000000000000000000000000000000815260040180806020018281038252602d81526020018061547e602d913960400191505060405180910390fd5b600061010f60009054906101000a900473ffffffffffffffffffffffffffffffffffffffff1673ffffffffffffffffffffffffffffffffffffffff1663c6db01ad3361010a5461334f61010454610108546147b790919063ffffffff16565b6040518463ffffffff1660e01b8152600401808473ffffffffffffffffffffffffffffffffffffffff1673ffffffffffffffffffffffffffffffffffffffff168152602001838152602001828152602001935050505060206040518083038186803b1580156133bd57600080fd5b505afa1580156133d1573d6000803e3d6000fd5b505050506040513d60208110156133e757600080fd5b8101908080519060200190929190505050905061010f60009054906101000a900473ffffffffffffffffffffffffffffffffffffffff1673ffffffffffffffffffffffffffffffffffffffff16632fab59ed33836040518363ffffffff1660e01b8152600401808373ffffffffffffffffffffffffffffffffffffffff1673ffffffffffffffffffffffffffffffffffffffff16815260200182815260200192505050600060405180830381600087803b1580156134a457600080fd5b505af11580156134b8573d6000803e3d6000fd5b5050505061010c60009054906101000a900473ffffffffffffffffffffffffffffffffffffffff1673ffffffffffffffffffffffffffffffffffffffff1663a9059cbb33836040518363ffffffff1660e01b8152600401808373ffffffffffffffffffffffffffffffffffffffff1673ffffffffffffffffffffffffffffffffffffffff16815260200182815260200192505050602060405180830381600087803b15801561356657600080fd5b505af115801561357a573d6000803e3d6000fd5b505050506040513d602081101561359057600080fd5b81019080805190602001909291905050505050565b61010960009054906101000a900460ff1681565b60cc60009054906101000a900460ff1661363b576040517f08c379a00000000000000000000000000000000000000000000000000000000081526004018080602001828103825260148152602001807f5061757361626c653a206e6f742070617573656400000000000000000000000081525060200191505060405180910390fd5b61011660009054906101000a900460ff166136be576040517f08c379a00000000000000000000000000000000000000000000000000000000081526004018080602001828103825260128152602001807f526566756e6473206e6f7420616374697665000000000000000000000000000081525060200191505060405180910390fd5b60006136c982612e4e565b905060008111613741576040517f08c379a00000000000000000000000000000000000000000000000000000000081526004018080602001828103825260118152602001807f4e6f7468696e6720746f20726566756e6400000000000000000000000000000081525060200191505060405180910390fd5b6137948161011560008573ffffffffffffffffffffffffffffffffffffffff1673ffffffffffffffffffffffffffffffffffffffff1681526020019081526020016000205461472f90919063ffffffff16565b61011560008473ffffffffffffffffffffffffffffffffffffffff1673ffffffffffffffffffffffffffffffffffffffff168152602001908152602001600020819055508173ffffffffffffffffffffffffffffffffffffffff166108fc829081150290604051600060405180830381858888f1935050505015801561381e573d6000803e3d6000fd5b505050565b600060019054906101000a900460ff168061384257506138416148d8565b5b8061385957506000809054906101000a900460ff16155b6138ae576040517f08c379a000000000000000000000000000000000000000000000000000000000815260040180806020018281038252602e8152602001806154cd602e913960400191505060405180910390fd5b60008060019054906101000a900460ff1615905080156138fe576001600060016101000a81548160ff02191690831515021790555060016000806101000a81548160ff0219169083151502179055505b61390782614daa565b600060cc60006101000a81548160ff02191690831515021790555080156139435760008060016101000a81548160ff0219169083151502179055505b5050565b6101146020528060005260406000206000915090505481565b60cc60009054906101000a900460ff16156139e3576040517f08c379a00000000000000000000000000000000000000000000000000000000081526004018080602001828103825260108152602001807f5061757361626c653a207061757365640000000000000000000000000000000081525060200191505060405180910390fd5b6139ed6000613b21565b565b61010a5481565b6101045481565b613a05612dd6565b613a77576040517f08c379a00000000000000000000000000000000000000000000000000000000081526004018080602001828103825260208152602001807f4f776e61626c653a2063616c6c6572206973206e6f7420746865206f776e657281525060200191505060405180910390fd5b565b6101068181548110613a8757fe5b906000526020600020016000915090505481565b613aa3612dd6565b613b15576040517f08c379a00000000000000000000000000000000000000000000000000000000081526004018080602001828103825260208152602001807f4f776e61626c653a2063616c6c6572206973206e6f7420746865206f776e657281525060200191505060405180910390fd5b613b1e81614aad565b50565b60016066600082825401925050819055506000606654905060cc60009054906101000a900460ff1615613bbc576040517f08c379a00000000000000000000000000000000000000000000000000000000081526004018080602001828103825260108152602001807f5061757361626c653a207061757365640000000000000000000000000000000081525060200191505060405180910390fd5b61010e60009054906101000a900473ffffffffffffffffffffffffffffffffffffffff1673ffffffffffffffffffffffffffffffffffffffff1663544736e66040518163ffffffff1660e01b815260040160206040518083038186803b158015613c2557600080fd5b505afa158015613c39573d6000803e3d6000fd5b505050506040513d6020811015613c4f57600080fd5b8101908080519060200190929190505050613cd2576040517f08c379a00000000000000000000000000000000000000000000000000000000081526004018080602001828103825260188152602001807f50726573616c65206e6f742079657420737461727465642e000000000000000081525060200191505060405180910390fd5b61011060009054906101000a900473ffffffffffffffffffffffffffffffffffffffff1673ffffffffffffffffffffffffffffffffffffffff1663fa04fcfb3361010e60009054906101000a900473ffffffffffffffffffffffffffffffffffffffff1673ffffffffffffffffffffffffffffffffffffffff166378e979256040518163ffffffff1660e01b815260040160206040518083038186803b158015613d7b57600080fd5b505afa158015613d8f573d6000803e3d6000fd5b505050506040513d6020811015613da557600080fd5b81019080805190602001909291905050506040518363ffffffff1660e01b8152600401808373ffffffffffffffffffffffffffffffffffffffff1673ffffffffffffffffffffffffffffffffffffffff1681526020018281526020019250505060206040518083038186803b158015613e1d57600080fd5b505afa158015613e31573d6000803e3d6000fd5b505050506040513d6020811015613e4757600080fd5b8101908080519060200190929190505050421015613eb0576040517f08c379a00000000000000000000000000000000000000000000000000000000081526004018080602001828103825260228152602001806153e26022913960400191505060405180910390fd5b8173ffffffffffffffffffffffffffffffffffffffff163373ffffffffffffffffffffffffffffffffffffffff161415613f52576040517f08c379a000000000000000000000000000000000000000000000000000000000815260040180806020018281038252601a8152602001807f53656e6465722063616e6e6f742062652072656665727265722e00000000000081525060200191505060405180910390fd5b61010754613f693447614bf390919063ffffffff16565b1115613fc0576040517f08c379a00000000000000000000000000000000000000000000000000000000081526004018080602001828103825260218152602001806155316021913960400191505060405180910390fd5b61010960009054906101000a900460ff1615614027576040517f08c379a00000000000000000000000000000000000000000000000000000000081526004018080602001828103825260278152602001806153bb6027913960400191505060405180910390fd5b600061010e60009054906101000a900473ffffffffffffffffffffffffffffffffffffffff1673ffffffffffffffffffffffffffffffffffffffff166329d5a0736040518163ffffffff1660e01b8152600401602060405180830381600087803b15801561409457600080fd5b505af11580156140a8573d6000803e3d6000fd5b505050506040513d60208110156140be57600080fd5b8101908080519060200190929190505050905080421180156140e1575060008114155b15614154576040517f08c379a000000000000000000000000000000000000000000000000000000000815260040180806020018281038252601f8152602001807f50726573616c6520456e6465642c2074696d65206f766572206c696d69742e0081525060200191505060405180910390fd5b60ff546142443461010f60009054906101000a900473ffffffffffffffffffffffffffffffffffffffff1673ffffffffffffffffffffffffffffffffffffffff1663835dada0336040518263ffffffff1660e01b8152600401808273ffffffffffffffffffffffffffffffffffffffff1673ffffffffffffffffffffffffffffffffffffffff16815260200191505060206040518083038186803b1580156141fb57600080fd5b505afa15801561420f573d6000803e3d6000fd5b505050506040513d602081101561422557600080fd5b810190808051906020019092919050505061472f90919063ffffffff16565b111561429b576040517f08c379a00000000000000000000000000000000000000000000000000000000081526004018080602001828103825260248152602001806153416024913960400191505060405180910390fd5b60006142b361010054346147b790919063ffffffff16565b905060003490506000809050610107544711156142fc57600092506142e46101075447614bf390919063ffffffff16565b90506142f98183614bf390919063ffffffff16565b91505b61010f60009054906101000a900473ffffffffffffffffffffffffffffffffffffffff1673ffffffffffffffffffffffffffffffffffffffff1663a13a75ca3361434f8686614bf390919063ffffffff16565b6143628747614bf390919063ffffffff16565b6040518463ffffffff1660e01b8152600401808473ffffffffffffffffffffffffffffffffffffffff1673ffffffffffffffffffffffffffffffffffffffff1681526020018381526020018281526020019350505050600060405180830381600087803b1580156143d257600080fd5b505af11580156143e6573d6000803e3d6000fd5b50505050600081141561464c57600073ffffffffffffffffffffffffffffffffffffffff168673ffffffffffffffffffffffffffffffffffffffff161415801561445c57503373ffffffffffffffffffffffffffffffffffffffff168673ffffffffffffffffffffffffffffffffffffffff1614155b156145dc576144b48361011360008973ffffffffffffffffffffffffffffffffffffffff1673ffffffffffffffffffffffffffffffffffffffff1681526020019081526020016000205461472f90919063ffffffff16565b61011360008873ffffffffffffffffffffffffffffffffffffffff1673ffffffffffffffffffffffffffffffffffffffff1681526020019081526020016000208190555061454c600161011460008973ffffffffffffffffffffffffffffffffffffffff1673ffffffffffffffffffffffffffffffffffffffff1681526020019081526020016000205461472f90919063ffffffff16565b61011460008873ffffffffffffffffffffffffffffffffffffffff1673ffffffffffffffffffffffffffffffffffffffff168152602001908152602001600020819055508573ffffffffffffffffffffffffffffffffffffffff166108fc849081150290604051600060405180830381858888f193505050501580156145d6573d6000803e3d6000fd5b50614647565b61011160009054906101000a900473ffffffffffffffffffffffffffffffffffffffff1673ffffffffffffffffffffffffffffffffffffffff166108fc849081150290604051600060405180830381858888f19350505050158015614645573d6000803e3d6000fd5b505b614694565b3373ffffffffffffffffffffffffffffffffffffffff166108fc829081150290604051600060405180830381858888f19350505050158015614692573d6000803e3d6000fd5b505b50505050606654811461470f576040517f08c379a000000000000000000000000000000000000000000000000000000000815260040180806020018281038252601f8152602001807f5265656e7472616e637947756172643a207265656e7472616e742063616c6c0081525060200191505060405180910390fd5b5050565b61010960019054906101000a900460ff1681565b600033905090565b6000808284019050838110156147ad576040517f08c379a000000000000000000000000000000000000000000000000000000000815260040180806020018281038252601b8152602001807f536166654d6174683a206164646974696f6e206f766572666c6f77000000000081525060200191505060405180910390fd5b8091505092915050565b6000808314156147ca57600090506147f4565b6147f16127106147e38486614ec190919063ffffffff16565b614f4790919063ffffffff16565b90505b92915050565b60008073ffffffffffffffffffffffffffffffffffffffff168273ffffffffffffffffffffffffffffffffffffffff161415614881576040517f08c379a00000000000000000000000000000000000000000000000000000000081526004018080602001828103825260228152602001806154ab6022913960400191505060405180910390fd5b8260000160008373ffffffffffffffffffffffffffffffffffffffff1673ffffffffffffffffffffffffffffffffffffffff16815260200190815260200160002060009054906101000a900460ff16905092915050565b6000803090506000813b9050600081149250505090565b600060019054906101000a900460ff168061490e575061490d6148d8565b5b8061492557506000809054906101000a900460ff16155b61497a576040517f08c379a000000000000000000000000000000000000000000000000000000000815260040180806020018281038252602e8152602001806154cd602e913960400191505060405180910390fd5b60008060019054906101000a900460ff1615905080156149ca576001600060016101000a81548160ff02191690831515021790555060016000806101000a81548160ff0219169083151502179055505b81603360006101000a81548173ffffffffffffffffffffffffffffffffffffffff021916908373ffffffffffffffffffffffffffffffffffffffff160217905550603360009054906101000a900473ffffffffffffffffffffffffffffffffffffffff1673ffffffffffffffffffffffffffffffffffffffff16600073ffffffffffffffffffffffffffffffffffffffff167f8be0079c531659141344cd1fd0a4f28419497f9722a3daafe3b4186f6b6457e060405160405180910390a38015614aa95760008060016101000a81548160ff0219169083151502179055505b5050565b600073ffffffffffffffffffffffffffffffffffffffff168173ffffffffffffffffffffffffffffffffffffffff161415614b33576040517f08c379a00000000000000000000000000000000000000000000000000000000081526004018080602001828103825260268152602001806153956026913960400191505060405180910390fd5b8073ffffffffffffffffffffffffffffffffffffffff16603360009054906101000a900473ffffffffffffffffffffffffffffffffffffffff1673ffffffffffffffffffffffffffffffffffffffff167f8be0079c531659141344cd1fd0a4f28419497f9722a3daafe3b4186f6b6457e060405160405180910390a380603360006101000a81548173ffffffffffffffffffffffffffffffffffffffff021916908373ffffffffffffffffffffffffffffffffffffffff16021790555050565b6000614c3583836040518060400160405280601e81526020017f536166654d6174683a207375627472616374696f6e206f766572666c6f770000815250614f91565b905092915050565b614c5181609961505190919063ffffffff16565b8073ffffffffffffffffffffffffffffffffffffffff167fcd265ebaf09df2871cc7bd4133404a235ba12eff2041bb89d9c714a2621c7c7e60405160405180910390a250565b614cab81609961510e90919063ffffffff16565b8073ffffffffffffffffffffffffffffffffffffffff167f6719d08c1888103bea251a4ed56406bd0c3e69723c8a1686e017e7bbe159b6f860405160405180910390a250565b6000808211614d68576040517f08c379a00000000000000000000000000000000000000000000000000000000081526004018080602001828103825260168152602001807f43616e6e6f7420646976696465206279207a65726f2e0000000000000000000081525060200191505060405180910390fd5b6000831415614d7a5760009050614da4565b614da182614d9361271086614ec190919063ffffffff16565b614f4790919063ffffffff16565b90505b92915050565b600060019054906101000a900460ff1680614dc95750614dc86148d8565b5b80614de057506000809054906101000a900460ff16155b614e35576040517f08c379a000000000000000000000000000000000000000000000000000000000815260040180806020018281038252602e8152602001806154cd602e913960400191505060405180910390fd5b60008060019054906101000a900460ff161590508015614e85576001600060016101000a81548160ff02191690831515021790555060016000806101000a81548160ff0219169083151502179055505b614e8e82611978565b614e9c57614e9b82614c97565b5b8015614ebd5760008060016101000a81548160ff0219169083151502179055505b5050565b600080831415614ed45760009050614f41565b6000828402905082848281614ee557fe5b0414614f3c576040517f08c379a000000000000000000000000000000000000000000000000000000000815260040180806020018281038252602181526020018061545d6021913960400191505060405180910390fd5b809150505b92915050565b6000614f8983836040518060400160405280601a81526020017f536166654d6174683a206469766973696f6e206279207a65726f0000000000008152506151e9565b905092915050565b600083831115829061503e576040517f08c379a00000000000000000000000000000000000000000000000000000000081526004018080602001828103825283818151815260200191508051906020019080838360005b83811015615003578082015181840152602081019050614fe8565b50505050905090810190601f1680156150305780820380516001836020036101000a031916815260200191505b509250505060405180910390fd5b5060008385039050809150509392505050565b61505b82826147fa565b6150b0576040517f08c379a000000000000000000000000000000000000000000000000000000000815260040180806020018281038252602181526020018061543c6021913960400191505060405180910390fd5b60008260000160008373ffffffffffffffffffffffffffffffffffffffff1673ffffffffffffffffffffffffffffffffffffffff16815260200190815260200160002060006101000a81548160ff0219169083151502179055505050565b61511882826147fa565b1561518b576040517f08c379a000000000000000000000000000000000000000000000000000000000815260040180806020018281038252601f8152602001807f526f6c65733a206163636f756e7420616c72656164792068617320726f6c650081525060200191505060405180910390fd5b60018260000160008373ffffffffffffffffffffffffffffffffffffffff1673ffffffffffffffffffffffffffffffffffffffff16815260200190815260200160002060006101000a81548160ff0219169083151502179055505050565b60008083118290615295576040517f08c379a00000000000000000000000000000000000000000000000000000000081526004018080602001828103825283818151815260200191508051906020019080838360005b8381101561525a57808201518184015260208101905061523f565b50505050905090810190601f1680156152875780820380516001836020036101000a031916815260200191505b509250505060405180910390fd5b5060008385816152a157fe5b049050809150509392505050565b50805460008255906000526020600020908101906152cd91906152f1565b50565b50805460008255906000526020600020908101906152ee91906152f1565b50565b61531391905b8082111561530f5760008160009055506001016152f7565b5090565b9056fe53656e646572206d757374206265206f726967696e202d206e6f20636f6e74726163742063616c6c732e4465706f7369742065786365656473206d6178206275792070657220616464726573732e506175736572526f6c653a2063616c6c657220646f6573206e6f742068617665207468652050617573657220726f6c654f776e61626c653a206e6577206f776e657220697320746865207a65726f206164647265737350726573616c6520456e6465642c20556e697377617020686173206265656e2063616c6c65642e54696d65206d757374206265206174206c65617374206163636573732074696d652e4d75737420616c6c6f636174652065786163746c7920313030252028313030303020425029206f6620746f6b656e7320746f20706f6f6c73526f6c65733a206163636f756e7420646f6573206e6f74206861766520726f6c65536166654d6174683a206d756c7469706c69636174696f6e206f766572666c6f774d75737420686176652073656e7420746f20556e6973776170206265666f726520616e792072656465656d732e526f6c65733a206163636f756e7420697320746865207a65726f2061646472657373436f6e747261637420696e7374616e63652068617320616c7265616479206265656e20696e697469616c697a65644d75737420686176652065786163746c79206f6e6520746f6b656e506f6f6c2061646472657373657320666f7220656163682042502e43616e6e6f74206465706f736974206d6f7265207468616e20686172646361702ea265627a7a72315820d9eb604b0fd6376fc0f1024b3f0110125a4a03e280932ecb6f90056b7edd8fa764736f6c63430005100032",
  "linkReferences": {},
  "deployedLinkReferences": {}
}