{
  "_format": "hh-sol-artifact-1",
  "contractName": "LidSimplifiedPresaleRedeemer",
  "sourceName": "contracts/LidSimplifiedPresale.sol",
  "abi": [
    {
      "anonymous": false,
      "inputs": [
        {
          "indexed": true,
          "internalType": "address",
          "name": "previousOwner",
          "type": "address"
        },
        {
          "indexed": true,
          "internalType": "address",
          "name": "newOwner",
          "type": "address"
        }
      ],
      "name": "OwnershipTransferred",
      "type": "event"
    },
    {
      "constant": true,
      "inputs": [
        {
          "internalType": "address",
          "name": "",
          "type": "address"
        }
      ],
      "name": "accountClaimedTokens",
      "outputs": [
        {
          "internalType": "uint256",
          "name": "",
          "type": "uint256"
        }
      ],
      "payable": false,
      "stateMutability": "view",
      "type": "function"
    },
    {
      "constant": true,
      "inputs": [
        {
          "internalType": "address",
          "name": "",
          "type": "address"
        }
      ],
      "name": "accountDeposits",
      "outputs": [
        {
          "internalType": "uint256",
          "name": "",
          "type": "uint256"
        }
      ],
      "payable": false,
      "stateMutability": "view",
      "type": "function"
    },
    {
      "constant": true,
      "inputs": [
        {
          "internalType": "address",
          "name": "",
          "type": "address"
        }
      ],
      "name": "accountShares",
      "outputs": [
        {
          "internalType": "uint256",
          "name": "",
          "type": "uint256"
        }
      ],
      "payable": false,
      "stateMutability": "view",
      "type": "function"
    },
    {
      "constant": true,
      "inputs": [
        {
          "internalType": "uint256",
          "name": "",
          "type": "uint256"
        }
      ],
      "name": "bonusRangeBP",
      "outputs": [
        {
          "internalType": "uint256",
          "name": "",
          "type": "uint256"
        }
      ],
      "payable": false,
      "stateMutability": "view",
      "type": "function"
    },
    {
      "constant": true,
      "inputs": [
        {
          "internalType": "uint256",
          "name": "",
          "type": "uint256"
        }
      ],
      "name": "bonusRangeStart",
      "outputs": [
        {
          "internalType": "uint256",
          "name": "",
          "type": "uint256"
        }
      ],
      "payable": false,
      "stateMutability": "view",
      "type": "function"
    },
    {
      "constant": true,
      "inputs": [
        {
          "internalType": "uint256",
          "name": "totalPresaleTokens",
          "type": "uint256"
        },
        {
          "internalType": "uint256",
          "name": "depositEth",
          "type": "uint256"
        },
        {
          "internalType": "uint256",
          "name": "hardCap",
          "type": "uint256"
        }
      ],
      "name": "calculateRatePerEth",
      "outputs": [
        {
          "internalType": "uint256",
          "name": "",
          "type": "uint256"
        }
      ],
      "payable": false,
      "stateMutability": "view",
      "type": "function"
    },
    {
      "constant": true,
      "inputs": [
        {
          "internalType": "address",
          "name": "account",
          "type": "address"
        },
        {
          "internalType": "uint256",
          "name": "finalEndTime",
          "type": "uint256"
        },
        {
          "internalType": "uint256",
          "name": "totalPresaleTokens",
          "type": "uint256"
        }
      ],
      "name": "calculateReedemable",
      "outputs": [
        {
          "internalType": "uint256",
          "name": "",
          "type": "uint256"
        }
      ],
      "payable": false,
      "stateMutability": "view",
      "type": "function"
    },
    {
      "constant": true,
      "inputs": [],
      "name": "currentBonusIndex",
      "outputs": [
        {
          "internalType": "uint256",
          "name": "",
          "type": "uint256"
        }
      ],
      "payable": false,
      "stateMutability": "view",
      "type": "function"
    },
    {
      "constant": true,
      "inputs": [
        {
          "internalType": "uint256",
          "name": "hardCap",
          "type": "uint256"
        }
      ],
      "name": "getMaxShares",
      "outputs": [
        {
          "internalType": "uint256",
          "name": "",
          "type": "uint256"
        }
      ],
      "payable": false,
      "stateMutability": "view",
      "type": "function"
    },
    {
      "constant": false,
      "inputs": [
        {
          "internalType": "uint256",
          "name": "_redeemBP",
          "type": "uint256"
        },
        {
          "internalType": "uint256",
          "name": "_redeemInterval",
          "type": "uint256"
        },
        {
          "internalType": "uint256[]",
          "name": "_bonusRangeStart",
          "type": "uint256[]"
        },
        {
          "internalType": "uint256[]",
          "name": "_bonusRangeBP",
          "type": "uint256[]"
        },
        {
          "internalType": "address",
          "name": "_presale",
          "type": "address"
        },
        {
          "internalType": "address",
          "name": "owner",
          "type": "address"
        }
      ],
      "name": "initialize",
      "outputs": [],
      "payable": false,
      "stateMutability": "nonpayable",
      "type": "function"
    },
    {
      "constant": false,
      "inputs": [
        {
          "internalType": "address",
          "name": "sender",
          "type": "address"
        }
      ],
      "name": "initialize",
      "outputs": [],
      "payable": false,
      "stateMutability": "nonpayable",
      "type": "function"
    },
    {
      "constant": true,
      "inputs": [],
      "name": "isOwner",
      "outputs": [
        {
          "internalType": "bool",
          "name": "",
          "type": "bool"
        }
      ],
      "payable": false,
      "stateMutability": "view",
      "type": "function"
    },
    {
      "constant": true,
      "inputs": [],
      "name": "owner",
      "outputs": [
        {
          "internalType": "address",
          "name": "",
          "type": "address"
        }
      ],
      "payable": false,
      "stateMutability": "view",
      "type": "function"
    },
    {
      "constant": true,
      "inputs": [],
      "name": "redeemBP",
      "outputs": [
        {
          "internalType": "uint256",
          "name": "",
          "type": "uint256"
        }
      ],
      "payable": false,
      "stateMutability": "view",
      "type": "function"
    },
    {
      "constant": true,
      "inputs": [],
      "name": "redeemInterval",
      "outputs": [
        {
          "internalType": "uint256",
          "name": "",
          "type": "uint256"
        }
      ],
      "payable": false,
      "stateMutability": "view",
      "type": "function"
    },
    {
      "constant": false,
      "inputs": [],
      "name": "renounceOwnership",
      "outputs": [],
      "payable": false,
      "stateMutability": "nonpayable",
      "type": "function"
    },
    {
      "constant": false,
      "inputs": [
        {
          "internalType": "address",
          "name": "account",
          "type": "address"
        },
        {
          "internalType": "uint256",
          "name": "amount",
          "type": "uint256"
        }
      ],
      "name": "setClaimed",
      "outputs": [],
      "payable": false,
      "stateMutability": "nonpayable",
      "type": "function"
    },
    {
      "constant": false,
      "inputs": [
        {
          "internalType": "address",
          "name": "account",
          "type": "address"
        },
        {
          "internalType": "uint256",
          "name": "deposit",
          "type": "uint256"
        },
        {
          "internalType": "uint256",
          "name": "postDepositEth",
          "type": "uint256"
        }
      ],
      "name": "setDeposit",
      "outputs": [],
      "payable": false,
      "stateMutability": "nonpayable",
      "type": "function"
    },
    {
      "constant": true,
      "inputs": [],
      "name": "totalDepositors",
      "outputs": [
        {
          "internalType": "uint256",
          "name": "",
          "type": "uint256"
        }
      ],
      "payable": false,
      "stateMutability": "view",
      "type": "function"
    },
    {
      "constant": true,
      "inputs": [],
      "name": "totalShares",
      "outputs": [
        {
          "internalType": "uint256",
          "name": "",
          "type": "uint256"
        }
      ],
      "payable": false,
      "stateMutability": "view",
      "type": "function"
    },
    {
      "constant": false,
      "inputs": [
        {
          "internalType": "address",
          "name": "newOwner",
          "type": "address"
        }
      ],
      "name": "transferOwnership",
      "outputs": [],
      "payable": false,
      "stateMutability": "nonpayable",
      "type": "function"
    }
  ],
  "bytecode": "0x6080604052611e21806100136000396000f3fe608060405234801561001057600080fd5b50600436106101375760003560e01c80638f32d59b116100b8578063c6db01ad1161007c578063c6db01ad14610546578063ce265203146105b2578063d08f20b9146105f4578063d578d8731461064a578063ddcc40331461068c578063f2fde38b146106e457610137565b80638f32d59b14610348578063a0bee36e1461036a578063a13a75ca1461048c578063a5ff3f80146104e4578063c4d66de81461050257610137565b806352c8b2f9116100ff57806352c8b2f914610202578063715018a61461025a578063835dada0146102645780638b03a185146102bc5780638da5cb5b146102fe57610137565b80632de977411461013c5780632fab59ed1461015a57806336e85d13146101a85780633a98ef39146101c6578063418f3128146101e4575b600080fd5b610144610728565b6040518082815260200191505060405180910390f35b6101a66004803603604081101561017057600080fd5b81019080803573ffffffffffffffffffffffffffffffffffffffff1690602001909291908035906020019092919050505061072e565b005b6101b061086d565b6040518082815260200191505060405180910390f35b6101ce610873565b6040518082815260200191505060405180910390f35b6101ec610879565b6040518082815260200191505060405180910390f35b6102446004803603602081101561021857600080fd5b81019080803573ffffffffffffffffffffffffffffffffffffffff16906020019092919050505061087f565b6040518082815260200191505060405180910390f35b610262610897565b005b6102a66004803603602081101561027a57600080fd5b81019080803573ffffffffffffffffffffffffffffffffffffffff1690602001909291905050506109d2565b6040518082815260200191505060405180910390f35b6102e8600480360360208110156102d257600080fd5b81019080803590602001909291905050506109ea565b6040518082815260200191505060405180910390f35b610306610a0b565b604051808273ffffffffffffffffffffffffffffffffffffffff1673ffffffffffffffffffffffffffffffffffffffff16815260200191505060405180910390f35b610350610a35565b604051808215151515815260200191505060405180910390f35b61048a600480360360c081101561038057600080fd5b810190808035906020019092919080359060200190929190803590602001906401000000008111156103b157600080fd5b8201836020820111156103c357600080fd5b803590602001918460208302840111640100000000831117156103e557600080fd5b90919293919293908035906020019064010000000081111561040657600080fd5b82018360208201111561041857600080fd5b8035906020019184602083028401116401000000008311171561043a57600080fd5b9091929391929390803573ffffffffffffffffffffffffffffffffffffffff169060200190929190803573ffffffffffffffffffffffffffffffffffffffff169060200190929190505050610a94565b005b6104e2600480360360608110156104a257600080fd5b81019080803573ffffffffffffffffffffffffffffffffffffffff1690602001909291908035906020019092919080359060200190929190505050610d6d565b005b6104ec611184565b6040518082815260200191505060405180910390f35b6105446004803603602081101561051857600080fd5b81019080803573ffffffffffffffffffffffffffffffffffffffff16906020019092919050505061118a565b005b61059c6004803603606081101561055c57600080fd5b81019080803573ffffffffffffffffffffffffffffffffffffffff1690602001909291908035906020019092919080359060200190929190505050611348565b6040518082815260200191505060405180910390f35b6105de600480360360208110156105c857600080fd5b81019080803590602001909291905050506114cb565b6040518082815260200191505060405180910390f35b6106346004803603606081101561060a57600080fd5b810190808035906020019092919080359060200190929190803590602001909291905050506115df565b6040518082815260200191505060405180910390f35b6106766004803603602081101561066057600080fd5b810190808035906020019092919050505061171e565b6040518082815260200191505060405180910390f35b6106ce600480360360208110156106a257600080fd5b81019080803573ffffffffffffffffffffffffffffffffffffffff16906020019092919050505061173f565b6040518082815260200191505060405180910390f35b610726600480360360208110156106fa57600080fd5b81019080803573ffffffffffffffffffffffffffffffffffffffff169060200190929190505050611757565b005b606a5481565b607060009054906101000a900473ffffffffffffffffffffffffffffffffffffffff1673ffffffffffffffffffffffffffffffffffffffff163373ffffffffffffffffffffffffffffffffffffffff16146107d4576040517f08c379a0000000000000000000000000000000000000000000000000000000008152600401808060200182810382526022815260200180611dcb6022913960400191505060405180910390fd5b61082681606f60008573ffffffffffffffffffffffffffffffffffffffff1673ffffffffffffffffffffffffffffffffffffffff168152602001908152602001600020546117dd90919063ffffffff16565b606f60008473ffffffffffffffffffffffffffffffffffffffff1673ffffffffffffffffffffffffffffffffffffffff168152602001908152602001600020819055505050565b60665481565b606b5481565b606c5481565b606e6020528060005260406000206000915090505481565b61089f610a35565b610911576040517f08c379a00000000000000000000000000000000000000000000000000000000081526004018080602001828103825260208152602001807f4f776e61626c653a2063616c6c6572206973206e6f7420746865206f776e657281525060200191505060405180910390fd5b600073ffffffffffffffffffffffffffffffffffffffff16603360009054906101000a900473ffffffffffffffffffffffffffffffffffffffff1673ffffffffffffffffffffffffffffffffffffffff167f8be0079c531659141344cd1fd0a4f28419497f9722a3daafe3b4186f6b6457e060405160405180910390a36000603360006101000a81548173ffffffffffffffffffffffffffffffffffffffff021916908373ffffffffffffffffffffffffffffffffffffffff160217905550565b606d6020528060005260406000206000915090505481565b606981815481106109f757fe5b906000526020600020016000915090505481565b6000603360009054906101000a900473ffffffffffffffffffffffffffffffffffffffff16905090565b6000603360009054906101000a900473ffffffffffffffffffffffffffffffffffffffff1673ffffffffffffffffffffffffffffffffffffffff16610a78611865565b73ffffffffffffffffffffffffffffffffffffffff1614905090565b600060019054906101000a900460ff1680610ab35750610ab261186d565b5b80610aca57506000809054906101000a900460ff16155b610b1f576040517f08c379a000000000000000000000000000000000000000000000000000000000815260040180806020018281038252602e815260200180611d71602e913960400191505060405180910390fd5b60008060019054906101000a900460ff161590508015610b6f576001600060016101000a81548160ff02191690831515021790555060016000806101000a81548160ff0219169083151502179055505b610b783361118a565b886066819055508760678190555082607060006101000a81548173ffffffffffffffffffffffffffffffffffffffff021916908373ffffffffffffffffffffffffffffffffffffffff160217905550848490508787905014610c25576040517f08c379a0000000000000000000000000000000000000000000000000000000008152600401808060200182810382526033815260200180611d1d6033913960400191505060405180910390fd5b600a878790501115610c82576040517f08c379a000000000000000000000000000000000000000000000000000000000815260040180806020018281038252602c815260200180611d9f602c913960400191505060405180910390fd5b60008090505b87879050811015610cdc576068888883818110610ca157fe5b905060200201359080600181540180825580915050906001820390600052602060002001600090919290919091505550806001019050610c88565b5060008090505b85859050811015610d37576069868683818110610cfc57fe5b905060200201359080600181540180825580915050906001820390600052602060002001600090919290919091505550806001019050610ce3565b50610d4182611884565b8015610d625760008060016101000a81548160ff0219169083151502179055505b505050505050505050565b607060009054906101000a900473ffffffffffffffffffffffffffffffffffffffff1673ffffffffffffffffffffffffffffffffffffffff163373ffffffffffffffffffffffffffffffffffffffff1614610e13576040517f08c379a0000000000000000000000000000000000000000000000000000000008152600401808060200182810382526022815260200180611dcb6022913960400191505060405180910390fd5b6000606d60008573ffffffffffffffffffffffffffffffffffffffff1673ffffffffffffffffffffffffffffffffffffffff168152602001908152602001600020541415610e7857610e716001606c546117dd90919063ffffffff16565b606c819055505b610eca82606d60008673ffffffffffffffffffffffffffffffffffffffff1673ffffffffffffffffffffffffffffffffffffffff168152602001908152602001600020546117dd90919063ffffffff16565b606d60008573ffffffffffffffffffffffffffffffffffffffff1673ffffffffffffffffffffffffffffffffffffffff168152602001908152602001600020819055506000606980549050610f2b6001606a546117dd90919063ffffffff16565b10610f6357610f5c6069606a5481548110610f4257fe5b9060005260206000200154846119ca90919063ffffffff16565b90506110ce565b6068610f7b6001606a546117dd90919063ffffffff16565b81548110610f8557fe5b9060005260206000200154821015610fca57610fc36069606a5481548110610fa957fe5b9060005260206000200154846119ca90919063ffffffff16565b90506110cd565b60006069606a5481548110610fdb57fe5b90600052602060002001549050600060696110026001606a546117dd90919063ffffffff16565b8154811061100c57fe5b90600052602060002001549050600061105a60686110366001606a546117dd90919063ffffffff16565b8154811061104057fe5b906000526020600020015486611a1390919063ffffffff16565b905060006110718288611a1390919063ffffffff16565b90506110aa61108985836119ca90919063ffffffff16565b61109c85856119ca90919063ffffffff16565b6117dd90919063ffffffff16565b94506110c26001606a546117dd90919063ffffffff16565b606a81905550505050505b5b61112081606e60008773ffffffffffffffffffffffffffffffffffffffff1673ffffffffffffffffffffffffffffffffffffffff168152602001908152602001600020546117dd90919063ffffffff16565b606e60008673ffffffffffffffffffffffffffffffffffffffff1673ffffffffffffffffffffffffffffffffffffffff1681526020019081526020016000208190555061117881606b546117dd90919063ffffffff16565b606b8190555050505050565b60675481565b600060019054906101000a900460ff16806111a957506111a861186d565b5b806111c057506000809054906101000a900460ff16155b611215576040517f08c379a000000000000000000000000000000000000000000000000000000000815260040180806020018281038252602e815260200180611d71602e913960400191505060405180910390fd5b60008060019054906101000a900460ff161590508015611265576001600060016101000a81548160ff02191690831515021790555060016000806101000a81548160ff0219169083151502179055505b81603360006101000a81548173ffffffffffffffffffffffffffffffffffffffff021916908373ffffffffffffffffffffffffffffffffffffffff160217905550603360009054906101000a900473ffffffffffffffffffffffffffffffffffffffff1673ffffffffffffffffffffffffffffffffffffffff16600073ffffffffffffffffffffffffffffffffffffffff167f8be0079c531659141344cd1fd0a4f28419497f9722a3daafe3b4186f6b6457e060405160405180910390a380156113445760008060016101000a81548160ff0219169083151502179055505b5050565b60008083141561135b57600090506114c4565b42831061136b57600090506114c4565b60006113d3606b546113c585606e60008a73ffffffffffffffffffffffffffffffffffffffff1673ffffffffffffffffffffffffffffffffffffffff16815260200190815260200160002054611a5d90919063ffffffff16565b611ae390919063ffffffff16565b90506000606f60008773ffffffffffffffffffffffffffffffffffffffff1673ffffffffffffffffffffffffffffffffffffffff168152602001908152602001600020549050600061145560016114476067546114398a42611a1390919063ffffffff16565b611ae390919063ffffffff16565b6117dd90919063ffffffff16565b905060006114808261147260665487611b2d90919063ffffffff16565b611a5d90919063ffffffff16565b905060008482106114a55761149e8486611a1390919063ffffffff16565b90506114bb565b6114b88483611a1390919063ffffffff16565b90505b80955050505050505b9392505050565b60008060008090505b6068805490508110156115d55760006114fc6001606880549050611a1390919063ffffffff16565b82101561155e576115576068838154811061151357fe5b906000526020600020015460686115346001866117dd90919063ffffffff16565b8154811061153e57fe5b9060005260206000200154611a1390919063ffffffff16565b905061158b565b6115886068838154811061156e57fe5b906000526020600020015486611a1390919063ffffffff16565b90505b6115c76115b86069848154811061159e57fe5b9060005260206000200154836119ca90919063ffffffff16565b846117dd90919063ffffffff16565b9250508060010190506114d4565b5080915050919050565b6000806116176115ee846114cb565b611609670de0b6b3a764000088611a5d90919063ffffffff16565b611ae390919063ffffffff16565b9050600060686116366001606880549050611a1390919063ffffffff16565b8154811061164057fe5b9060005260206000200154851061168857606961166c6001606980549050611a1390919063ffffffff16565b8154811061167657fe5b90600052602060002001549050611700565b6000600190505b6068805490508110156116fe5760008214156116f357606881815481106116b257fe5b90600052602060002001548610156116f25760696116da600183611a1390919063ffffffff16565b815481106116e457fe5b906000526020600020015491505b5b80600101905061168f565b505b61171381836119ca90919063ffffffff16565b925050509392505050565b6068818154811061172b57fe5b906000526020600020016000915090505481565b606f6020528060005260406000206000915090505481565b61175f610a35565b6117d1576040517f08c379a00000000000000000000000000000000000000000000000000000000081526004018080602001828103825260208152602001807f4f776e61626c653a2063616c6c6572206973206e6f7420746865206f776e657281525060200191505060405180910390fd5b6117da81611884565b50565b60008082840190508381101561185b576040517f08c379a000000000000000000000000000000000000000000000000000000000815260040180806020018281038252601b8152602001807f536166654d6174683a206164646974696f6e206f766572666c6f77000000000081525060200191505060405180910390fd5b8091505092915050565b600033905090565b6000803090506000813b9050600081149250505090565b600073ffffffffffffffffffffffffffffffffffffffff168173ffffffffffffffffffffffffffffffffffffffff16141561190a576040517f08c379a0000000000000000000000000000000000000000000000000000000008152600401808060200182810382526026815260200180611cf76026913960400191505060405180910390fd5b8073ffffffffffffffffffffffffffffffffffffffff16603360009054906101000a900473ffffffffffffffffffffffffffffffffffffffff1673ffffffffffffffffffffffffffffffffffffffff167f8be0079c531659141344cd1fd0a4f28419497f9722a3daafe3b4186f6b6457e060405160405180910390a380603360006101000a81548173ffffffffffffffffffffffffffffffffffffffff021916908373ffffffffffffffffffffffffffffffffffffffff16021790555050565b6000808314156119dd5760009050611a0d565b60008214156119ee57829050611a0d565b611a0a6119fb8484611b2d565b846117dd90919063ffffffff16565b90505b92915050565b6000611a5583836040518060400160405280601e81526020017f536166654d6174683a207375627472616374696f6e206f766572666c6f770000815250611b70565b905092915050565b600080831415611a705760009050611add565b6000828402905082848281611a8157fe5b0414611ad8576040517f08c379a0000000000000000000000000000000000000000000000000000000008152600401808060200182810382526021815260200180611d506021913960400191505060405180910390fd5b809150505b92915050565b6000611b2583836040518060400160405280601a81526020017f536166654d6174683a206469766973696f6e206279207a65726f000000000000815250611c30565b905092915050565b600080831415611b405760009050611b6a565b611b67612710611b598486611a5d90919063ffffffff16565b611ae390919063ffffffff16565b90505b92915050565b6000838311158290611c1d576040517f08c379a00000000000000000000000000000000000000000000000000000000081526004018080602001828103825283818151815260200191508051906020019080838360005b83811015611be2578082015181840152602081019050611bc7565b50505050905090810190601f168015611c0f5780820380516001836020036101000a031916815260200191505b509250505060405180910390fd5b5060008385039050809150509392505050565b60008083118290611cdc576040517f08c379a00000000000000000000000000000000000000000000000000000000081526004018080602001828103825283818151815260200191508051906020019080838360005b83811015611ca1578082015181840152602081019050611c86565b50505050905090810190601f168015611cce5780820380516001836020036101000a031916815260200191505b509250505060405180910390fd5b506000838581611ce857fe5b04905080915050939250505056fe4f776e61626c653a206e6577206f776e657220697320746865207a65726f20616464726573734d757374206861766520657175616c2076616c75657320666f7220626f6e75732072616e676520737461727420616e64204250536166654d6174683a206d756c7469706c69636174696f6e206f766572666c6f77436f6e747261637420696e7374616e63652068617320616c7265616479206265656e20696e697469616c697a656443616e6e6f742068617665206d6f7265207468616e203130206974656d7320696e20626f6e757352616e67654f6e6c792063616c6c61626c652062792070726573616c6520636f6e74726163742ea265627a7a723158209ec1e32b0b8e8d50134e283a0a4b9f4c6769b524f88b957e904a875c7dc2f6d164736f6c63430005100032",
  "linkReferences": {},
  "deployedLinkReferences": {}
}