{
  "_format": "hh-sol-artifact-1",
  "contractName": "Presale",
  "sourceName": "contracts/Presale.sol",
  "abi": [
    {
      "inputs": [
        {
          "internalType": "uint256",
          "name": "rate",
          "type": "uint256"
        },
        {
          "internalType": "address payable",
          "name": "wallet",
          "type": "address"
        },
        {
          "internalType": "contract IERC20",
          "name": "token",
          "type": "address"
        },
        {
          "internalType": "uint256",
          "name": "_buyBonusRate",
          "type": "uint256"
        }
      ],
      "stateMutability": "nonpayable",
      "type": "constructor"
    },
    {
      "anonymous": false,
      "inputs": [
        {
          "indexed": true,
          "internalType": "address",
          "name": "user",
          "type": "address"
        },
        {
          "indexed": true,
          "internalType": "address",
          "name": "referrer",
          "type": "address"
        },
        {
          "indexed": false,
          "internalType": "uint256",
          "name": "commissionAmount",
          "type": "uint256"
        }
      ],
      "name": "ReferralCommissionPaid",
      "type": "event"
    },
    {
      "anonymous": false,
      "inputs": [
        {
          "indexed": true,
          "internalType": "address",
          "name": "user",
          "type": "address"
        },
        {
          "indexed": true,
          "internalType": "address",
          "name": "referrer",
          "type": "address"
        }
      ],
      "name": "ReferralRecorded",
      "type": "event"
    },
    {
      "inputs": [],
      "name": "LDN",
      "outputs": [
        {
          "internalType": "contract IERC20",
          "name": "",
          "type": "address"
        }
      ],
      "stateMutability": "view",
      "type": "function"
    },
    {
      "inputs": [],
      "name": "active",
      "outputs": [
        {
          "internalType": "bool",
          "name": "",
          "type": "bool"
        }
      ],
      "stateMutability": "view",
      "type": "function"
    },
    {
      "inputs": [
        {
          "internalType": "address",
          "name": "_referrer",
          "type": "address"
        }
      ],
      "name": "buy",
      "outputs": [],
      "stateMutability": "payable",
      "type": "function"
    },
    {
      "inputs": [],
      "name": "buyBonusRate",
      "outputs": [
        {
          "internalType": "uint256",
          "name": "",
          "type": "uint256"
        }
      ],
      "stateMutability": "view",
      "type": "function"
    },
    {
      "inputs": [],
      "name": "changeActiveStatus",
      "outputs": [],
      "stateMutability": "nonpayable",
      "type": "function"
    },
    {
      "inputs": [],
      "name": "contributions",
      "outputs": [
        {
          "internalType": "uint256",
          "name": "weiContributions",
          "type": "uint256"
        }
      ],
      "stateMutability": "view",
      "type": "function"
    },
    {
      "inputs": [],
      "name": "owner",
      "outputs": [
        {
          "internalType": "address",
          "name": "",
          "type": "address"
        }
      ],
      "stateMutability": "view",
      "type": "function"
    },
    {
      "inputs": [],
      "name": "rateOfTokensToGivePerEth",
      "outputs": [
        {
          "internalType": "uint256",
          "name": "",
          "type": "uint256"
        }
      ],
      "stateMutability": "view",
      "type": "function"
    },
    {
      "inputs": [],
      "name": "referralCommissionRate",
      "outputs": [
        {
          "internalType": "uint16",
          "name": "",
          "type": "uint16"
        }
      ],
      "stateMutability": "view",
      "type": "function"
    },
    {
      "inputs": [
        {
          "internalType": "address",
          "name": "",
          "type": "address"
        }
      ],
      "name": "referralCount",
      "outputs": [
        {
          "internalType": "uint256",
          "name": "",
          "type": "uint256"
        }
      ],
      "stateMutability": "view",
      "type": "function"
    },
    {
      "inputs": [
        {
          "internalType": "address",
          "name": "",
          "type": "address"
        }
      ],
      "name": "referralRewards",
      "outputs": [
        {
          "internalType": "uint256",
          "name": "",
          "type": "uint256"
        }
      ],
      "stateMutability": "view",
      "type": "function"
    },
    {
      "inputs": [],
      "name": "totalStaked",
      "outputs": [
        {
          "internalType": "uint256",
          "name": "",
          "type": "uint256"
        }
      ],
      "stateMutability": "view",
      "type": "function"
    },
    {
      "inputs": [],
      "name": "walletToStoreTheEthers",
      "outputs": [
        {
          "internalType": "address payable",
          "name": "",
          "type": "address"
        }
      ],
      "stateMutability": "view",
      "type": "function"
    },
    {
      "inputs": [],
      "name": "withdrawEarnings",
      "outputs": [
        {
          "internalType": "bool",
          "name": "",
          "type": "bool"
        }
      ],
      "stateMutability": "nonpayable",
      "type": "function"
    }
  ],
  "bytecode": "0x60806040526001600860006101000a81548160ff0219169083151502179055506064600c60006101000a81548161ffff021916908361ffff1602179055503480156200004a57600080fd5b50604051620018f4380380620018f4833981810160405281019062000070919062000309565b600160008190555060008411620000be576040517f08c379a0000000000000000000000000000000000000000000000000000000008152600401620000b590620004cb565b60405180910390fd5b600073ffffffffffffffffffffffffffffffffffffffff168373ffffffffffffffffffffffffffffffffffffffff16141562000131576040517f08c379a0000000000000000000000000000000000000000000000000000000008152600401620001289062000487565b60405180910390fd5b600073ffffffffffffffffffffffffffffffffffffffff168273ffffffffffffffffffffffffffffffffffffffff161415620001a4576040517f08c379a00000000000000000000000000000000000000000000000000000000081526004016200019b90620004a9565b60405180910390fd5b33600160006101000a81548173ffffffffffffffffffffffffffffffffffffffff021916908373ffffffffffffffffffffffffffffffffffffffff160217905550806007819055508360028190555082600560006101000a81548173ffffffffffffffffffffffffffffffffffffffff021916908373ffffffffffffffffffffffffffffffffffffffff16021790555081600660006101000a81548173ffffffffffffffffffffffffffffffffffffffff021916908373ffffffffffffffffffffffffffffffffffffffff1602179055506000600b60003373ffffffffffffffffffffffffffffffffffffffff1673ffffffffffffffffffffffffffffffffffffffff1681526020019081526020016000208190555050505050620005b2565b600081519050620002d58162000564565b92915050565b600081519050620002ec816200057e565b92915050565b600081519050620003038162000598565b92915050565b600080600080608085870312156200032057600080fd5b60006200033087828801620002f2565b94505060206200034387828801620002c4565b93505060406200035687828801620002db565b92505060606200036987828801620002f2565b91505092959194509250565b600062000384602483620004ed565b91507f5072652d53616c653a2077616c6c657420697320746865207a65726f2061646460008301527f72657373000000000000000000000000000000000000000000000000000000006020830152604082019050919050565b6000620003ec602383620004ed565b91507f5072652d53616c653a20746f6b656e20697320746865207a65726f206164647260008301527f65737300000000000000000000000000000000000000000000000000000000006020830152604082019050919050565b600062000454601383620004ed565b91507f5072652d53616c653a20726174652069732030000000000000000000000000006000830152602082019050919050565b60006020820190508181036000830152620004a28162000375565b9050919050565b60006020820190508181036000830152620004c481620003dd565b9050919050565b60006020820190508181036000830152620004e68162000445565b9050919050565b600082825260208201905092915050565b60006200050b826200053a565b9050919050565b60006200051f826200053a565b9050919050565b60006200053382620004fe565b9050919050565b600073ffffffffffffffffffffffffffffffffffffffff82169050919050565b6000819050919050565b6200056f8162000512565b81146200057b57600080fd5b50565b620005898162000526565b81146200059557600080fd5b50565b620005a3816200055a565b8114620005af57600080fd5b50565b61133280620005c26000396000f3fe6080604052600436106100dd5760003560e01c8063946897cf1161007f578063d30ef61b11610059578063d30ef61b1461028e578063db74559b146102b9578063f088d547146102f6578063ff8245b914610312576100dd565b8063946897cf1461020d578063a8c65c1f14610238578063b73c6ce914610263576100dd565b80631f9cd415116100bb5780631f9cd4151461014f57806353aaa63b1461017a578063817b1cd2146101b75780638da5cb5b146101e2576100dd565b8063029eabcb146100e257806302fb0c5e1461010d57806313c3338414610138575b600080fd5b3480156100ee57600080fd5b506100f761033d565b6040516101049190611077565b60405180910390f35b34801561011957600080fd5b50610122610384565b60405161012f9190610f66565b60405180910390f35b34801561014457600080fd5b5061014d610397565b005b34801561015b57600080fd5b5061016461047a565b6040516101719190610f22565b60405180910390f35b34801561018657600080fd5b506101a1600480360381019061019c9190610c66565b6104a0565b6040516101ae9190611077565b60405180910390f35b3480156101c357600080fd5b506101cc6104b8565b6040516101d99190611077565b60405180910390f35b3480156101ee57600080fd5b506101f76104be565b6040516102049190610f07565b60405180910390f35b34801561021957600080fd5b506102226104e4565b60405161022f9190611077565b60405180910390f35b34801561024457600080fd5b5061024d6104ea565b60405161025a9190610f81565b60405180910390f35b34801561026f57600080fd5b50610278610510565b6040516102859190610f66565b60405180910390f35b34801561029a57600080fd5b506102a361081a565b6040516102b0919061105c565b60405180910390f35b3480156102c557600080fd5b506102e060048036038101906102db9190610c66565b61082e565b6040516102ed9190611077565b60405180910390f35b610310600480360381019061030b9190610c66565b610846565b005b34801561031e57600080fd5b50610327610bdf565b6040516103349190611077565b60405180910390f35b6000600b60003373ffffffffffffffffffffffffffffffffffffffff1673ffffffffffffffffffffffffffffffffffffffff16815260200190815260200160002054905090565b600860009054906101000a900460ff1681565b600160009054906101000a900473ffffffffffffffffffffffffffffffffffffffff1673ffffffffffffffffffffffffffffffffffffffff163373ffffffffffffffffffffffffffffffffffffffff1614610427576040517f08c379a000000000000000000000000000000000000000000000000000000000815260040161041e90610fbc565b60405180910390fd5b600860009054906101000a900460ff161561045c576000600860006101000a81548160ff021916908315150217905550610478565b6001600860006101000a81548160ff0219169083151502179055505b565b600560009054906101000a900473ffffffffffffffffffffffffffffffffffffffff1681565b60096020528060005260406000206000915090505481565b60035481565b600160009054906101000a900473ffffffffffffffffffffffffffffffffffffffff1681565b60025481565b600660009054906101000a900473ffffffffffffffffffffffffffffffffffffffff1681565b600060026000541415610558576040517f08c379a000000000000000000000000000000000000000000000000000000000815260040161054f9061103c565b60405180910390fd5b60026000819055506000600960003373ffffffffffffffffffffffffffffffffffffffff1673ffffffffffffffffffffffffffffffffffffffff168152602001908152602001600020549050600081116105e7576040517f08c379a00000000000000000000000000000000000000000000000000000000081526004016105de90610ffc565b60405180910390fd5b80600660009054906101000a900473ffffffffffffffffffffffffffffffffffffffff1673ffffffffffffffffffffffffffffffffffffffff166370a08231306040518263ffffffff1660e01b81526004016106439190610f07565b60206040518083038186803b15801561065b57600080fd5b505afa15801561066f573d6000803e3d6000fd5b505050506040513d601f19601f820116820180604052508101906106939190610cb8565b10156106d4576040517f08c379a00000000000000000000000000000000000000000000000000000000081526004016106cb90610f9c565b60405180910390fd5b6000600960003373ffffffffffffffffffffffffffffffffffffffff1673ffffffffffffffffffffffffffffffffffffffff168152602001908152602001600020819055506000600a60003373ffffffffffffffffffffffffffffffffffffffff1673ffffffffffffffffffffffffffffffffffffffff16815260200190815260200160002081905550600660009054906101000a900473ffffffffffffffffffffffffffffffffffffffff1673ffffffffffffffffffffffffffffffffffffffff1663a9059cbb33836040518363ffffffff1660e01b81526004016107bb929190610f3d565b602060405180830381600087803b1580156107d557600080fd5b505af11580156107e9573d6000803e3d6000fd5b505050506040513d601f19601f8201168201806040525081019061080d9190610c8f565b5050600160008190555090565b600c60009054906101000a900461ffff1681565b600a6020528060005260406000206000915090505481565b60011515600860009054906101000a900460ff1615151461089c576040517f08c379a000000000000000000000000000000000000000000000000000000000815260040161089390610fdc565b60405180910390fd5b600034116108df576040517f08c379a00000000000000000000000000000000000000000000000000000000081526004016108d69061101c565b60405180910390fd5b670de0b6b3a7640000346108f391906110f9565b600254610900919061112a565b60048190555060006109336103e8610925600454600754610be590919063ffffffff16565b610bfb90919063ffffffff16565b9050600073ffffffffffffffffffffffffffffffffffffffff168273ffffffffffffffffffffffffffffffffffffffff161415801561099e57508173ffffffffffffffffffffffffffffffffffffffff163373ffffffffffffffffffffffffffffffffffffffff1614155b15610a4f57600a60008373ffffffffffffffffffffffffffffffffffffffff1673ffffffffffffffffffffffffffffffffffffffff16815260200190815260200160002060008154809291906109f390611210565b919050555080600960008473ffffffffffffffffffffffffffffffffffffffff1673ffffffffffffffffffffffffffffffffffffffff1681526020019081526020016000206000828254610a4791906110a3565b925050819055505b34600b60003373ffffffffffffffffffffffffffffffffffffffff1673ffffffffffffffffffffffffffffffffffffffff1681526020019081526020016000206000828254610a9e91906110a3565b92505081905550610aba34600354610c1190919063ffffffff16565b600381905550600560009054906101000a900473ffffffffffffffffffffffffffffffffffffffff1673ffffffffffffffffffffffffffffffffffffffff166108fc349081150290604051600060405180830381858888f19350505050158015610b28573d6000803e3d6000fd5b50600660009054906101000a900473ffffffffffffffffffffffffffffffffffffffff1673ffffffffffffffffffffffffffffffffffffffff1663a9059cbb336004546040518363ffffffff1660e01b8152600401610b88929190610f3d565b602060405180830381600087803b158015610ba257600080fd5b505af1158015610bb6573d6000803e3d6000fd5b505050506040513d601f19601f82011682018060405250810190610bda9190610c8f565b505050565b60075481565b60008183610bf3919061112a565b905092915050565b60008183610c0991906110f9565b905092915050565b60008183610c1f91906110a3565b905092915050565b600081359050610c36816112b7565b92915050565b600081519050610c4b816112ce565b92915050565b600081519050610c60816112e5565b92915050565b600060208284031215610c7857600080fd5b6000610c8684828501610c27565b91505092915050565b600060208284031215610ca157600080fd5b6000610caf84828501610c3c565b91505092915050565b600060208284031215610cca57600080fd5b6000610cd884828501610c51565b91505092915050565b610cea81611196565b82525050565b610cf981611184565b82525050565b610d08816111a8565b82525050565b610d17816111ec565b82525050565b6000610d2a602083611092565b91507f496e73756666696369656e74204c4e442062616c616e636520696e20706f6f6c6000830152602082019050919050565b6000610d6a602a83611092565b91507f4f6e6c7920436f6e7472616374204f776e65722063616e2063616c6c2074686960008301527f732066756e6374696f6e000000000000000000000000000000000000000000006020830152604082019050919050565b6000610dd0602483611092565b91507f536d61727420436f6e74726163742069732063757272656e746c7920696e616360008301527f74697665000000000000000000000000000000000000000000000000000000006020830152604082019050919050565b6000610e36601583611092565b91507f4e6f2072657761726420746f20776974686472617700000000000000000000006000830152602082019050919050565b6000610e76601683611092565b91507f43616e6e6f7420627579205a45524f20746f6b656e73000000000000000000006000830152602082019050919050565b6000610eb6601f83611092565b91507f5265656e7472616e637947756172643a207265656e7472616e742063616c6c006000830152602082019050919050565b610ef2816111b4565b82525050565b610f01816111e2565b82525050565b6000602082019050610f1c6000830184610cf0565b92915050565b6000602082019050610f376000830184610ce1565b92915050565b6000604082019050610f526000830185610cf0565b610f5f6020830184610ef8565b9392505050565b6000602082019050610f7b6000830184610cff565b92915050565b6000602082019050610f966000830184610d0e565b92915050565b60006020820190508181036000830152610fb581610d1d565b9050919050565b60006020820190508181036000830152610fd581610d5d565b9050919050565b60006020820190508181036000830152610ff581610dc3565b9050919050565b6000602082019050818103600083015261101581610e29565b9050919050565b6000602082019050818103600083015261103581610e69565b9050919050565b6000602082019050818103600083015261105581610ea9565b9050919050565b60006020820190506110716000830184610ee9565b92915050565b600060208201905061108c6000830184610ef8565b92915050565b600082825260208201905092915050565b60006110ae826111e2565b91506110b9836111e2565b9250827fffffffffffffffffffffffffffffffffffffffffffffffffffffffffffffffff038211156110ee576110ed611259565b5b828201905092915050565b6000611104826111e2565b915061110f836111e2565b92508261111f5761111e611288565b5b828204905092915050565b6000611135826111e2565b9150611140836111e2565b9250817fffffffffffffffffffffffffffffffffffffffffffffffffffffffffffffffff048311821515161561117957611178611259565b5b828202905092915050565b600061118f826111c2565b9050919050565b60006111a1826111c2565b9050919050565b60008115159050919050565b600061ffff82169050919050565b600073ffffffffffffffffffffffffffffffffffffffff82169050919050565b6000819050919050565b60006111f7826111fe565b9050919050565b6000611209826111c2565b9050919050565b600061121b826111e2565b91507fffffffffffffffffffffffffffffffffffffffffffffffffffffffffffffffff82141561124e5761124d611259565b5b600182019050919050565b7f4e487b7100000000000000000000000000000000000000000000000000000000600052601160045260246000fd5b7f4e487b7100000000000000000000000000000000000000000000000000000000600052601260045260246000fd5b6112c081611184565b81146112cb57600080fd5b50565b6112d7816111a8565b81146112e257600080fd5b50565b6112ee816111e2565b81146112f957600080fd5b5056fea26469706673582212203717ece1acd5c62b95ffb177748c7673c436382ddefb480574310e6a2909439864736f6c63430008000033",
  "linkReferences": {},
  "deployedLinkReferences": {}
}